{"contracts/Voting.sol":{"Voting":{"abi":[{"inputs":[],"stateMutability":"nonpayable","type":"constructor"},{"inputs":[{"internalType":"uint256","name":"_electionId","type":"uint256"},{"internalType":"string","name":"_name","type":"string"}],"name":"addCandidate","outputs":[],"stateMutability":"nonpayable","type":"function"},{"inputs":[],"name":"admin","outputs":[{"internalType":"address","name":"","type":"address"}],"stateMutability":"view","type":"function"},{"inputs":[{"internalType":"string","name":"_name","type":"string"},{"internalType":"uint256","name":"_startTime","type":"uint256"},{"internalType":"uint256","name":"_endTime","type":"uint256"}],"name":"createElection","outputs":[],"stateMutability":"nonpayable","type":"function"},{"inputs":[],"name":"electionCount","outputs":[{"internalType":"uint256","name":"","type":"uint256"}],"stateMutability":"view","type":"function"},{"inputs":[{"internalType":"uint256","name":"id","type":"uint256"},{"internalType":"uint256","name":"cid","type":"uint256"}],"name":"getCandidate","outputs":[{"internalType":"string","name":"","type":"string"},{"internalType":"uint256","name":"","type":"uint256"}],"stateMutability":"view","type":"function"},{"inputs":[{"internalType":"uint256","name":"id","type":"uint256"}],"name":"getCandidateCount","outputs":[{"internalType":"uint256","name":"","type":"uint256"}],"stateMutability":"view","type":"function"},{"inputs":[{"internalType":"uint256","name":"id","type":"uint256"}],"name":"getElection","outputs":[{"internalType":"string","name":"","type":"string"},{"internalType":"uint256","name":"","type":"uint256"},{"internalType":"uint256","name":"","type":"uint256"}],"stateMutability":"view","type":"function"},{"inputs":[],"name":"getElectionCount","outputs":[{"internalType":"uint256","name":"","type":"uint256"}],"stateMutability":"view","type":"function"},{"inputs":[{"internalType":"uint256","name":"_electionId","type":"uint256"},{"internalType":"address","name":"user","type":"address"}],"name":"hasAlreadyVoted","outputs":[{"internalType":"bool","name":"","type":"bool"}],"stateMutability":"view","type":"function"},{"inputs":[{"internalType":"uint256","name":"id","type":"uint256"},{"internalType":"address","name":"user","type":"address"}],"name":"isRegistered","outputs":[{"internalType":"bool","name":"","type":"bool"}],"stateMutability":"view","type":"function"},{"inputs":[{"internalType":"uint256","name":"id","type":"uint256"},{"internalType":"bytes32","name":"h","type":"bytes32"}],"name":"isWhitelisted","outputs":[{"internalType":"bool","name":"","type":"bool"}],"stateMutability":"view","type":"function"},{"inputs":[{"internalType":"uint256","name":"_electionId","type":"uint256"},{"internalType":"bytes32","name":"_hashedId","type":"bytes32"}],"name":"register","outputs":[],"stateMutability":"nonpayable","type":"function"},{"inputs":[{"internalType":"uint256","name":"","type":"uint256"},{"internalType":"address","name":"","type":"address"}],"name":"registeredVoterId","outputs":[{"internalType":"bytes32","name":"","type":"bytes32"}],"stateMutability":"view","type":"function"},{"inputs":[{"internalType":"uint256","name":"","type":"uint256"},{"internalType":"bytes32","name":"","type":"bytes32"}],"name":"validVoterId","outputs":[{"internalType":"bool","name":"","type":"bool"}],"stateMutability":"view","type":"function"},{"inputs":[{"internalType":"uint256","name":"_electionId","type":"uint256"},{"internalType":"uint256","name":"_candidateId","type":"uint256"}],"name":"vote","outputs":[],"stateMutability":"nonpayable","type":"function"},{"inputs":[{"internalType":"uint256","name":"_electionId","type":"uint256"},{"internalType":"bytes32[]","name":"_ids","type":"bytes32[]"}],"name":"whitelistMultipleVoterIds","outputs":[],"stateMutability":"nonpayable","type":"function"}],"evm":{"bytecode":{"linkReferences":{},"object":"608060405234801561001057600080fd5b50336000806101000a81548173ffffffffffffffffffffffffffffffffffffffff021916908373ffffffffffffffffffffffffffffffffffffffff160217905550611ad6806100606000396000f3fe608060405234801561001057600080fd5b50600436106101005760003560e01c80639d71077711610097578063f0ba55e011610066578063f0ba55e0146102e8578063f49a7a1714610318578063f851a44014610334578063fe0af8f71461035257610100565b80639d7107771461023a578063b384abef1461026c578063b81f6e1814610288578063c14bfd29146102b857610100565b80632965d809116100d35780632965d8091461019f5780634bd46448146101bb5780636909fd44146101ec578063997d28301461021c57610100565b80631750a3d0146101055780631a5455fc14610121578063213785a01461015157806326f6a2aa1461016f575b600080fd5b61011f600480360381019061011a9190610f17565b61036e565b005b61013b60048036038101906101369190610fd1565b610484565b604051610148919061102a565b60405180910390f35b6101596104a9565b6040516101669190611054565b60405180910390f35b6101896004803603810190610184919061106f565b6104b3565b6040516101969190611054565b60405180910390f35b6101b960048036038101906101b491906110c8565b6104d3565b005b6101d560048036038101906101d09190611108565b610632565b6040516101e39291906111c7565b60405180910390f35b610206600480360381019061020191906110c8565b610701565b6040516102139190611212565b60405180910390f35b61022461073d565b6040516102319190611054565b60405180910390f35b610254600480360381019061024f919061106f565b610743565b6040516102639392919061122d565b60405180910390f35b61028660048036038101906102819190611108565b610807565b005b6102a2600480360381019061029d9190610fd1565b6109d4565b6040516102af9190611212565b60405180910390f35b6102d260048036038101906102cd9190610fd1565b610a35565b6040516102df9190611212565b60405180910390f35b61030260048036038101906102fd91906110c8565b610ade565b60405161030f9190611212565b60405180910390f35b610332600480360381019061032d919061126b565b610b0d565b005b61033c610c5a565b60405161034991906112e9565b60405180910390f35b61036c600480360381019061036791906113cc565b610c7e565b005b60008054906101000a900473ffffffffffffffffffffffffffffffffffffffff1673ffffffffffffffffffffffffffffffffffffffff163373ffffffffffffffffffffffffffffffffffffffff16146103fc576040517f08c379a00000000000000000000000000000000000000000000000000000000081526004016103f390611474565b60405180910390fd5b60006002600084815260200190815260200160002090506040518060400160405280838152602001600081525081600401600083600301548152602001908152602001600020600082015181600001908161045791906116a0565b506020820151816001015590505080600301600081548092919061047a906117a1565b9190505550505050565b6004602052816000526040600020602052806000526040600020600091509150505481565b6000600154905090565b600060026000838152602001908152602001600020600301549050919050565b60036000838152602001908152602001600020600082815260200190815260200160002060009054906101000a900460ff16610544576040517f08c379a000000000000000000000000000000000000000000000000000000000815260040161053b90611835565b60405180910390fd5b6000801b6004600084815260200190815260200160002060003373ffffffffffffffffffffffffffffffffffffffff1673ffffffffffffffffffffffffffffffffffffffff16815260200190815260200160002054146105d9576040517f08c379a00000000000000000000000000000000000000000000000000000000081526004016105d0906118a1565b60405180910390fd5b806004600084815260200190815260200160002060003373ffffffffffffffffffffffffffffffffffffffff1673ffffffffffffffffffffffffffffffffffffffff168152602001908152602001600020819055505050565b60606000806002600086815260200190815260200160002060040160008581526020019081526020016000209050806000018160010154818054610675906114c3565b80601f01602080910402602001604051908101604052809291908181526020018280546106a1906114c3565b80156106ee5780601f106106c3576101008083540402835291602001916106ee565b820191906000526020600020905b8154815290600101906020018083116106d157829003601f168201915b5050505050915092509250509250929050565b600060036000848152602001908152602001600020600083815260200190815260200160002060009054906101000a900460ff16905092915050565b60015481565b606060008060006002600086815260200190815260200160002090508060000181600101548260020154828054610779906114c3565b80601f01602080910402602001604051908101604052809291908181526020018280546107a5906114c3565b80156107f25780601f106107c7576101008083540402835291602001916107f2565b820191906000526020600020905b8154815290600101906020018083116107d557829003601f168201915b50505050509250935093509350509193909250565b600060026000848152602001908152602001600020905080600101544210158015610836575080600201544211155b610875576040517f08c379a000000000000000000000000000000000000000000000000000000000815260040161086c9061190d565b60405180910390fd5b60006004600085815260200190815260200160002060003373ffffffffffffffffffffffffffffffffffffffff1673ffffffffffffffffffffffffffffffffffffffff1681526020019081526020016000205490506000801b810361090f576040517f08c379a000000000000000000000000000000000000000000000000000000000815260040161090690611979565b60405180910390fd5b81600501600082815260200190815260200160002060009054906101000a900460ff1615610972576040517f08c379a0000000000000000000000000000000000000000000000000000000008152600401610969906119e5565b60405180910390fd5b816004016000848152602001908152602001600020600101600081548092919061099b906117a1565b9190505550600182600501600083815260200190815260200160002060006101000a81548160ff02191690831515021790555050505050565b60008060001b6004600085815260200190815260200160002060008473ffffffffffffffffffffffffffffffffffffffff1673ffffffffffffffffffffffffffffffffffffffff168152602001908152602001600020541415905092915050565b6000806004600085815260200190815260200160002060008473ffffffffffffffffffffffffffffffffffffffff1673ffffffffffffffffffffffffffffffffffffffff1681526020019081526020016000205490506000801b8103610a9f576000915050610ad8565b60026000858152602001908152602001600020600501600082815260200190815260200160002060009054906101000a900460ff169150505b92915050565b60036020528160005260406000206020528060005260406000206000915091509054906101000a900460ff1681565b60008054906101000a900473ffffffffffffffffffffffffffffffffffffffff1673ffffffffffffffffffffffffffffffffffffffff163373ffffffffffffffffffffffffffffffffffffffff1614610b9b576040517f08c379a0000000000000000000000000000000000000000000000000000000008152600401610b9290611474565b60405180910390fd5b808210610bdd576040517f08c379a0000000000000000000000000000000000000000000000000000000008152600401610bd490611a51565b60405180910390fd5b826002600060015481526020019081526020016000206000019081610c0291906116a0565b508160026000600154815260200190815260200160002060010181905550806002600060015481526020019081526020016000206002018190555060016000815480929190610c50906117a1565b9190505550505050565b60008054906101000a900473ffffffffffffffffffffffffffffffffffffffff1681565b60008054906101000a900473ffffffffffffffffffffffffffffffffffffffff1673ffffffffffffffffffffffffffffffffffffffff163373ffffffffffffffffffffffffffffffffffffffff1614610d0c576040517f08c379a0000000000000000000000000000000000000000000000000000000008152600401610d0390611474565b60405180910390fd5b60005b8151811015610d82576001600360008581526020019081526020016000206000848481518110610d4257610d41611a71565b5b6020026020010151815260200190815260200160002060006101000a81548160ff0219169083151502179055508080610d7a906117a1565b915050610d0f565b505050565b6000604051905090565b600080fd5b600080fd5b6000819050919050565b610dae81610d9b565b8114610db957600080fd5b50565b600081359050610dcb81610da5565b92915050565b600080fd5b600080fd5b6000601f19601f8301169050919050565b7f4e487b7100000000000000000000000000000000000000000000000000000000600052604160045260246000fd5b610e2482610ddb565b810181811067ffffffffffffffff82111715610e4357610e42610dec565b5b80604052505050565b6000610e56610d87565b9050610e628282610e1b565b919050565b600067ffffffffffffffff821115610e8257610e81610dec565b5b610e8b82610ddb565b9050602081019050919050565b82818337600083830152505050565b6000610eba610eb584610e67565b610e4c565b905082815260208101848484011115610ed657610ed5610dd6565b5b610ee1848285610e98565b509392505050565b600082601f830112610efe57610efd610dd1565b5b8135610f0e848260208601610ea7565b91505092915050565b60008060408385031215610f2e57610f2d610d91565b5b6000610f3c85828601610dbc565b925050602083013567ffffffffffffffff811115610f5d57610f5c610d96565b5b610f6985828601610ee9565b9150509250929050565b600073ffffffffffffffffffffffffffffffffffffffff82169050919050565b6000610f9e82610f73565b9050919050565b610fae81610f93565b8114610fb957600080fd5b50565b600081359050610fcb81610fa5565b92915050565b60008060408385031215610fe857610fe7610d91565b5b6000610ff685828601610dbc565b925050602061100785828601610fbc565b9150509250929050565b6000819050919050565b61102481611011565b82525050565b600060208201905061103f600083018461101b565b92915050565b61104e81610d9b565b82525050565b60006020820190506110696000830184611045565b92915050565b60006020828403121561108557611084610d91565b5b600061109384828501610dbc565b91505092915050565b6110a581611011565b81146110b057600080fd5b50565b6000813590506110c28161109c565b92915050565b600080604083850312156110df576110de610d91565b5b60006110ed85828601610dbc565b92505060206110fe858286016110b3565b9150509250929050565b6000806040838503121561111f5761111e610d91565b5b600061112d85828601610dbc565b925050602061113e85828601610dbc565b9150509250929050565b600081519050919050565b600082825260208201905092915050565b60005b83811015611182578082015181840152602081019050611167565b60008484015250505050565b600061119982611148565b6111a38185611153565b93506111b3818560208601611164565b6111bc81610ddb565b840191505092915050565b600060408201905081810360008301526111e1818561118e565b90506111f06020830184611045565b9392505050565b60008115159050919050565b61120c816111f7565b82525050565b60006020820190506112276000830184611203565b92915050565b60006060820190508181036000830152611247818661118e565b90506112566020830185611045565b6112636040830184611045565b949350505050565b60008060006060848603121561128457611283610d91565b5b600084013567ffffffffffffffff8111156112a2576112a1610d96565b5b6112ae86828701610ee9565b93505060206112bf86828701610dbc565b92505060406112d086828701610dbc565b9150509250925092565b6112e381610f93565b82525050565b60006020820190506112fe60008301846112da565b92915050565b600067ffffffffffffffff82111561131f5761131e610dec565b5b602082029050602081019050919050565b600080fd5b600061134861134384611304565b610e4c565b9050808382526020820190506020840283018581111561136b5761136a611330565b5b835b81811015611394578061138088826110b3565b84526020840193505060208101905061136d565b5050509392505050565b600082601f8301126113b3576113b2610dd1565b5b81356113c3848260208601611335565b91505092915050565b600080604083850312156113e3576113e2610d91565b5b60006113f185828601610dbc565b925050602083013567ffffffffffffffff81111561141257611411610d96565b5b61141e8582860161139e565b9150509250929050565b7f4f6e6c792061646d696e20616c6c6f7765640000000000000000000000000000600082015250565b600061145e601283611153565b915061146982611428565b602082019050919050565b6000602082019050818103600083015261148d81611451565b9050919050565b7f4e487b7100000000000000000000000000000000000000000000000000000000600052602260045260246000fd5b600060028204905060018216806114db57607f821691505b6020821081036114ee576114ed611494565b5b50919050565b60008190508160005260206000209050919050565b60006020601f8301049050919050565b600082821b905092915050565b6000600883026115567fffffffffffffffffffffffffffffffffffffffffffffffffffffffffffffffff82611519565b6115608683611519565b95508019841693508086168417925050509392505050565b6000819050919050565b600061159d61159861159384610d9b565b611578565b610d9b565b9050919050565b6000819050919050565b6115b783611582565b6115cb6115c3826115a4565b848454611526565b825550505050565b600090565b6115e06115d3565b6115eb8184846115ae565b505050565b5b8181101561160f576116046000826115d8565b6001810190506115f1565b5050565b601f82111561165457611625816114f4565b61162e84611509565b8101602085101561163d578190505b61165161164985611509565b8301826115f0565b50505b505050565b600082821c905092915050565b600061167760001984600802611659565b1980831691505092915050565b60006116908383611666565b9150826002028217905092915050565b6116a982611148565b67ffffffffffffffff8111156116c2576116c1610dec565b5b6116cc82546114c3565b6116d7828285611613565b600060209050601f83116001811461170a57600084156116f8578287015190505b6117028582611684565b86555061176a565b601f198416611718866114f4565b60005b828110156117405784890151825560018201915060208501945060208101905061171b565b8683101561175d5784890151611759601f891682611666565b8355505b6001600288020188555050505b505050505050565b7f4e487b7100000000000000000000000000000000000000000000000000000000600052601160045260246000fd5b60006117ac82610d9b565b91507fffffffffffffffffffffffffffffffffffffffffffffffffffffffffffffffff82036117de576117dd611772565b5b600182019050919050565b7f4e6f742077686974656c69737465640000000000000000000000000000000000600082015250565b600061181f600f83611153565b915061182a826117e9565b602082019050919050565b6000602082019050818103600083015261184e81611812565b9050919050565b7f416c726561647920726567697374657265640000000000000000000000000000600082015250565b600061188b601283611153565b915061189682611855565b602082019050919050565b600060208201905081810360008301526118ba8161187e565b9050919050565b7f456c656374696f6e206e6f742061637469766500000000000000000000000000600082015250565b60006118f7601383611153565b9150611902826118c1565b602082019050919050565b60006020820190508181036000830152611926816118ea565b9050919050565b7f4e6f742072656769737465726564000000000000000000000000000000000000600082015250565b6000611963600e83611153565b915061196e8261192d565b602082019050919050565b6000602082019050818103600083015261199281611956565b9050919050565b7f416c726561647920766f74656400000000000000000000000000000000000000600082015250565b60006119cf600d83611153565b91506119da82611999565b602082019050919050565b600060208201905081810360008301526119fe816119c2565b9050919050565b7f496e76616c69642074696d650000000000000000000000000000000000000000600082015250565b6000611a3b600c83611153565b9150611a4682611a05565b602082019050919050565b60006020820190508181036000830152611a6a81611a2e565b9050919050565b7f4e487b7100000000000000000000000000000000000000000000000000000000600052603260045260246000fdfea26469706673582212202b2adc5b1d48c865973c96112640e69eeb7c3f6b56499ee6f6140dbd1c4ca80c64736f6c63430008140033","opcodes":"PUSH1 0x80 PUSH1 0x40 MSTORE CALLVALUE DUP1 ISZERO PUSH2 0x10 JUMPI PUSH1 0x0 DUP1 REVERT JUMPDEST POP CALLER PUSH1 0x0 DUP1 PUSH2 0x100 EXP DUP2 SLOAD DUP2 PUSH20 0xFFFFFFFFFFFFFFFFFFFFFFFFFFFFFFFFFFFFFFFF MUL NOT AND SWAP1 DUP4 PUSH20 0xFFFFFFFFFFFFFFFFFFFFFFFFFFFFFFFFFFFFFFFF AND MUL OR SWAP1 SSTORE POP PUSH2 0x1AD6 DUP1 PUSH2 0x60 PUSH1 0x0 CODECOPY PUSH1 0x0 RETURN INVALID PUSH1 0x80 PUSH1 0x40 MSTORE CALLVALUE DUP1 ISZERO PUSH2 0x10 JUMPI PUSH1 0x0 DUP1 REVERT JUMPDEST POP PUSH1 0x4 CALLDATASIZE LT PUSH2 0x100 JUMPI PUSH1 0x0 CALLDATALOAD PUSH1 0xE0 SHR DUP1 PUSH4 0x9D710777 GT PUSH2 0x97 JUMPI DUP1 PUSH4 0xF0BA55E0 GT PUSH2 0x66 JUMPI DUP1 PUSH4 0xF0BA55E0 EQ PUSH2 0x2E8 JUMPI DUP1 PUSH4 0xF49A7A17 EQ PUSH2 0x318 JUMPI DUP1 PUSH4 0xF851A440 EQ PUSH2 0x334 JUMPI DUP1 PUSH4 0xFE0AF8F7 EQ PUSH2 0x352 JUMPI PUSH2 0x100 JUMP JUMPDEST DUP1 PUSH4 0x9D710777 EQ PUSH2 0x23A JUMPI DUP1 PUSH4 0xB384ABEF EQ PUSH2 0x26C JUMPI DUP1 PUSH4 0xB81F6E18 EQ PUSH2 0x288 JUMPI DUP1 PUSH4 0xC14BFD29 EQ PUSH2 0x2B8 JUMPI PUSH2 0x100 JUMP JUMPDEST DUP1 PUSH4 0x2965D809 GT PUSH2 0xD3 JUMPI DUP1 PUSH4 0x2965D809 EQ PUSH2 0x19F JUMPI DUP1 PUSH4 0x4BD46448 EQ PUSH2 0x1BB JUMPI DUP1 PUSH4 0x6909FD44 EQ PUSH2 0x1EC JUMPI DUP1 PUSH4 0x997D2830 EQ PUSH2 0x21C JUMPI PUSH2 0x100 JUMP JUMPDEST DUP1 PUSH4 0x1750A3D0 EQ PUSH2 0x105 JUMPI DUP1 PUSH4 0x1A5455FC EQ PUSH2 0x121 JUMPI DUP1 PUSH4 0x213785A0 EQ PUSH2 0x151 JUMPI DUP1 PUSH4 0x26F6A2AA EQ PUSH2 0x16F JUMPI JUMPDEST PUSH1 0x0 DUP1 REVERT JUMPDEST PUSH2 0x11F PUSH1 0x4 DUP1 CALLDATASIZE SUB DUP2 ADD SWAP1 PUSH2 0x11A SWAP2 SWAP1 PUSH2 0xF17 JUMP JUMPDEST PUSH2 0x36E JUMP JUMPDEST STOP JUMPDEST PUSH2 0x13B PUSH1 0x4 DUP1 CALLDATASIZE SUB DUP2 ADD SWAP1 PUSH2 0x136 SWAP2 SWAP1 PUSH2 0xFD1 JUMP JUMPDEST PUSH2 0x484 JUMP JUMPDEST PUSH1 0x40 MLOAD PUSH2 0x148 SWAP2 SWAP1 PUSH2 0x102A JUMP JUMPDEST PUSH1 0x40 MLOAD DUP1 SWAP2 SUB SWAP1 RETURN JUMPDEST PUSH2 0x159 PUSH2 0x4A9 JUMP JUMPDEST PUSH1 0x40 MLOAD PUSH2 0x166 SWAP2 SWAP1 PUSH2 0x1054 JUMP JUMPDEST PUSH1 0x40 MLOAD DUP1 SWAP2 SUB SWAP1 RETURN JUMPDEST PUSH2 0x189 PUSH1 0x4 DUP1 CALLDATASIZE SUB DUP2 ADD SWAP1 PUSH2 0x184 SWAP2 SWAP1 PUSH2 0x106F JUMP JUMPDEST PUSH2 0x4B3 JUMP JUMPDEST PUSH1 0x40 MLOAD PUSH2 0x196 SWAP2 SWAP1 PUSH2 0x1054 JUMP JUMPDEST PUSH1 0x40 MLOAD DUP1 SWAP2 SUB SWAP1 RETURN JUMPDEST PUSH2 0x1B9 PUSH1 0x4 DUP1 CALLDATASIZE SUB DUP2 ADD SWAP1 PUSH2 0x1B4 SWAP2 SWAP1 PUSH2 0x10C8 JUMP JUMPDEST PUSH2 0x4D3 JUMP JUMPDEST STOP JUMPDEST PUSH2 0x1D5 PUSH1 0x4 DUP1 CALLDATASIZE SUB DUP2 ADD SWAP1 PUSH2 0x1D0 SWAP2 SWAP1 PUSH2 0x1108 JUMP JUMPDEST PUSH2 0x632 JUMP JUMPDEST PUSH1 0x40 MLOAD PUSH2 0x1E3 SWAP3 SWAP2 SWAP1 PUSH2 0x11C7 JUMP JUMPDEST PUSH1 0x40 MLOAD DUP1 SWAP2 SUB SWAP1 RETURN JUMPDEST PUSH2 0x206 PUSH1 0x4 DUP1 CALLDATASIZE SUB DUP2 ADD SWAP1 PUSH2 0x201 SWAP2 SWAP1 PUSH2 0x10C8 JUMP JUMPDEST PUSH2 0x701 JUMP JUMPDEST PUSH1 0x40 MLOAD PUSH2 0x213 SWAP2 SWAP1 PUSH2 0x1212 JUMP JUMPDEST PUSH1 0x40 MLOAD DUP1 SWAP2 SUB SWAP1 RETURN JUMPDEST PUSH2 0x224 PUSH2 0x73D JUMP JUMPDEST PUSH1 0x40 MLOAD PUSH2 0x231 SWAP2 SWAP1 PUSH2 0x1054 JUMP JUMPDEST PUSH1 0x40 MLOAD DUP1 SWAP2 SUB SWAP1 RETURN JUMPDEST PUSH2 0x254 PUSH1 0x4 DUP1 CALLDATASIZE SUB DUP2 ADD SWAP1 PUSH2 0x24F SWAP2 SWAP1 PUSH2 0x106F JUMP JUMPDEST PUSH2 0x743 JUMP JUMPDEST PUSH1 0x40 MLOAD PUSH2 0x263 SWAP4 SWAP3 SWAP2 SWAP1 PUSH2 0x122D JUMP JUMPDEST PUSH1 0x40 MLOAD DUP1 SWAP2 SUB SWAP1 RETURN JUMPDEST PUSH2 0x286 PUSH1 0x4 DUP1 CALLDATASIZE SUB DUP2 ADD SWAP1 PUSH2 0x281 SWAP2 SWAP1 PUSH2 0x1108 JUMP JUMPDEST PUSH2 0x807 JUMP JUMPDEST STOP JUMPDEST PUSH2 0x2A2 PUSH1 0x4 DUP1 CALLDATASIZE SUB DUP2 ADD SWAP1 PUSH2 0x29D SWAP2 SWAP1 PUSH2 0xFD1 JUMP JUMPDEST PUSH2 0x9D4 JUMP JUMPDEST PUSH1 0x40 MLOAD PUSH2 0x2AF SWAP2 SWAP1 PUSH2 0x1212 JUMP JUMPDEST PUSH1 0x40 MLOAD DUP1 SWAP2 SUB SWAP1 RETURN JUMPDEST PUSH2 0x2D2 PUSH1 0x4 DUP1 CALLDATASIZE SUB DUP2 ADD SWAP1 PUSH2 0x2CD SWAP2 SWAP1 PUSH2 0xFD1 JUMP JUMPDEST PUSH2 0xA35 JUMP JUMPDEST PUSH1 0x40 MLOAD PUSH2 0x2DF SWAP2 SWAP1 PUSH2 0x1212 JUMP JUMPDEST PUSH1 0x40 MLOAD DUP1 SWAP2 SUB SWAP1 RETURN JUMPDEST PUSH2 0x302 PUSH1 0x4 DUP1 CALLDATASIZE SUB DUP2 ADD SWAP1 PUSH2 0x2FD SWAP2 SWAP1 PUSH2 0x10C8 JUMP JUMPDEST PUSH2 0xADE JUMP JUMPDEST PUSH1 0x40 MLOAD PUSH2 0x30F SWAP2 SWAP1 PUSH2 0x1212 JUMP JUMPDEST PUSH1 0x40 MLOAD DUP1 SWAP2 SUB SWAP1 RETURN JUMPDEST PUSH2 0x332 PUSH1 0x4 DUP1 CALLDATASIZE SUB DUP2 ADD SWAP1 PUSH2 0x32D SWAP2 SWAP1 PUSH2 0x126B JUMP JUMPDEST PUSH2 0xB0D JUMP JUMPDEST STOP JUMPDEST PUSH2 0x33C PUSH2 0xC5A JUMP JUMPDEST PUSH1 0x40 MLOAD PUSH2 0x349 SWAP2 SWAP1 PUSH2 0x12E9 JUMP JUMPDEST PUSH1 0x40 MLOAD DUP1 SWAP2 SUB SWAP1 RETURN JUMPDEST PUSH2 0x36C PUSH1 0x4 DUP1 CALLDATASIZE SUB DUP2 ADD SWAP1 PUSH2 0x367 SWAP2 SWAP1 PUSH2 0x13CC JUMP JUMPDEST PUSH2 0xC7E JUMP JUMPDEST STOP JUMPDEST PUSH1 0x0 DUP1 SLOAD SWAP1 PUSH2 0x100 EXP SWAP1 DIV PUSH20 0xFFFFFFFFFFFFFFFFFFFFFFFFFFFFFFFFFFFFFFFF AND PUSH20 0xFFFFFFFFFFFFFFFFFFFFFFFFFFFFFFFFFFFFFFFF AND CALLER PUSH20 0xFFFFFFFFFFFFFFFFFFFFFFFFFFFFFFFFFFFFFFFF AND EQ PUSH2 0x3FC JUMPI PUSH1 0x40 MLOAD PUSH32 0x8C379A000000000000000000000000000000000000000000000000000000000 DUP2 MSTORE PUSH1 0x4 ADD PUSH2 0x3F3 SWAP1 PUSH2 0x1474 JUMP JUMPDEST PUSH1 0x40 MLOAD DUP1 SWAP2 SUB SWAP1 REVERT JUMPDEST PUSH1 0x0 PUSH1 0x2 PUSH1 0x0 DUP5 DUP2 MSTORE PUSH1 0x20 ADD SWAP1 DUP2 MSTORE PUSH1 0x20 ADD PUSH1 0x0 KECCAK256 SWAP1 POP PUSH1 0x40 MLOAD DUP1 PUSH1 0x40 ADD PUSH1 0x40 MSTORE DUP1 DUP4 DUP2 MSTORE PUSH1 0x20 ADD PUSH1 0x0 DUP2 MSTORE POP DUP2 PUSH1 0x4 ADD PUSH1 0x0 DUP4 PUSH1 0x3 ADD SLOAD DUP2 MSTORE PUSH1 0x20 ADD SWAP1 DUP2 MSTORE PUSH1 0x20 ADD PUSH1 0x0 KECCAK256 PUSH1 0x0 DUP3 ADD MLOAD DUP2 PUSH1 0x0 ADD SWAP1 DUP2 PUSH2 0x457 SWAP2 SWAP1 PUSH2 0x16A0 JUMP JUMPDEST POP PUSH1 0x20 DUP3 ADD MLOAD DUP2 PUSH1 0x1 ADD SSTORE SWAP1 POP POP DUP1 PUSH1 0x3 ADD PUSH1 0x0 DUP2 SLOAD DUP1 SWAP3 SWAP2 SWAP1 PUSH2 0x47A SWAP1 PUSH2 0x17A1 JUMP JUMPDEST SWAP2 SWAP1 POP SSTORE POP POP POP POP JUMP JUMPDEST PUSH1 0x4 PUSH1 0x20 MSTORE DUP2 PUSH1 0x0 MSTORE PUSH1 0x40 PUSH1 0x0 KECCAK256 PUSH1 0x20 MSTORE DUP1 PUSH1 0x0 MSTORE PUSH1 0x40 PUSH1 0x0 KECCAK256 PUSH1 0x0 SWAP2 POP SWAP2 POP POP SLOAD DUP2 JUMP JUMPDEST PUSH1 0x0 PUSH1 0x1 SLOAD SWAP1 POP SWAP1 JUMP JUMPDEST PUSH1 0x0 PUSH1 0x2 PUSH1 0x0 DUP4 DUP2 MSTORE PUSH1 0x20 ADD SWAP1 DUP2 MSTORE PUSH1 0x20 ADD PUSH1 0x0 KECCAK256 PUSH1 0x3 ADD SLOAD SWAP1 POP SWAP2 SWAP1 POP JUMP JUMPDEST PUSH1 0x3 PUSH1 0x0 DUP4 DUP2 MSTORE PUSH1 0x20 ADD SWAP1 DUP2 MSTORE PUSH1 0x20 ADD PUSH1 0x0 KECCAK256 PUSH1 0x0 DUP3 DUP2 MSTORE PUSH1 0x20 ADD SWAP1 DUP2 MSTORE PUSH1 0x20 ADD PUSH1 0x0 KECCAK256 PUSH1 0x0 SWAP1 SLOAD SWAP1 PUSH2 0x100 EXP SWAP1 DIV PUSH1 0xFF AND PUSH2 0x544 JUMPI PUSH1 0x40 MLOAD PUSH32 0x8C379A000000000000000000000000000000000000000000000000000000000 DUP2 MSTORE PUSH1 0x4 ADD PUSH2 0x53B SWAP1 PUSH2 0x1835 JUMP JUMPDEST PUSH1 0x40 MLOAD DUP1 SWAP2 SUB SWAP1 REVERT JUMPDEST PUSH1 0x0 DUP1 SHL PUSH1 0x4 PUSH1 0x0 DUP5 DUP2 MSTORE PUSH1 0x20 ADD SWAP1 DUP2 MSTORE PUSH1 0x20 ADD PUSH1 0x0 KECCAK256 PUSH1 0x0 CALLER PUSH20 0xFFFFFFFFFFFFFFFFFFFFFFFFFFFFFFFFFFFFFFFF AND PUSH20 0xFFFFFFFFFFFFFFFFFFFFFFFFFFFFFFFFFFFFFFFF AND DUP2 MSTORE PUSH1 0x20 ADD SWAP1 DUP2 MSTORE PUSH1 0x20 ADD PUSH1 0x0 KECCAK256 SLOAD EQ PUSH2 0x5D9 JUMPI PUSH1 0x40 MLOAD PUSH32 0x8C379A000000000000000000000000000000000000000000000000000000000 DUP2 MSTORE PUSH1 0x4 ADD PUSH2 0x5D0 SWAP1 PUSH2 0x18A1 JUMP JUMPDEST PUSH1 0x40 MLOAD DUP1 SWAP2 SUB SWAP1 REVERT JUMPDEST DUP1 PUSH1 0x4 PUSH1 0x0 DUP5 DUP2 MSTORE PUSH1 0x20 ADD SWAP1 DUP2 MSTORE PUSH1 0x20 ADD PUSH1 0x0 KECCAK256 PUSH1 0x0 CALLER PUSH20 0xFFFFFFFFFFFFFFFFFFFFFFFFFFFFFFFFFFFFFFFF AND PUSH20 0xFFFFFFFFFFFFFFFFFFFFFFFFFFFFFFFFFFFFFFFF AND DUP2 MSTORE PUSH1 0x20 ADD SWAP1 DUP2 MSTORE PUSH1 0x20 ADD PUSH1 0x0 KECCAK256 DUP2 SWAP1 SSTORE POP POP POP JUMP JUMPDEST PUSH1 0x60 PUSH1 0x0 DUP1 PUSH1 0x2 PUSH1 0x0 DUP7 DUP2 MSTORE PUSH1 0x20 ADD SWAP1 DUP2 MSTORE PUSH1 0x20 ADD PUSH1 0x0 KECCAK256 PUSH1 0x4 ADD PUSH1 0x0 DUP6 DUP2 MSTORE PUSH1 0x20 ADD SWAP1 DUP2 MSTORE PUSH1 0x20 ADD PUSH1 0x0 KECCAK256 SWAP1 POP DUP1 PUSH1 0x0 ADD DUP2 PUSH1 0x1 ADD SLOAD DUP2 DUP1 SLOAD PUSH2 0x675 SWAP1 PUSH2 0x14C3 JUMP JUMPDEST DUP1 PUSH1 0x1F ADD PUSH1 0x20 DUP1 SWAP2 DIV MUL PUSH1 0x20 ADD PUSH1 0x40 MLOAD SWAP1 DUP2 ADD PUSH1 0x40 MSTORE DUP1 SWAP3 SWAP2 SWAP1 DUP2 DUP2 MSTORE PUSH1 0x20 ADD DUP3 DUP1 SLOAD PUSH2 0x6A1 SWAP1 PUSH2 0x14C3 JUMP JUMPDEST DUP1 ISZERO PUSH2 0x6EE JUMPI DUP1 PUSH1 0x1F LT PUSH2 0x6C3 JUMPI PUSH2 0x100 DUP1 DUP4 SLOAD DIV MUL DUP4 MSTORE SWAP2 PUSH1 0x20 ADD SWAP2 PUSH2 0x6EE JUMP JUMPDEST DUP3 ADD SWAP2 SWAP1 PUSH1 0x0 MSTORE PUSH1 0x20 PUSH1 0x0 KECCAK256 SWAP1 JUMPDEST DUP2 SLOAD DUP2 MSTORE SWAP1 PUSH1 0x1 ADD SWAP1 PUSH1 0x20 ADD DUP1 DUP4 GT PUSH2 0x6D1 JUMPI DUP3 SWAP1 SUB PUSH1 0x1F AND DUP3 ADD SWAP2 JUMPDEST POP POP POP POP POP SWAP2 POP SWAP3 POP SWAP3 POP POP SWAP3 POP SWAP3 SWAP1 POP JUMP JUMPDEST PUSH1 0x0 PUSH1 0x3 PUSH1 0x0 DUP5 DUP2 MSTORE PUSH1 0x20 ADD SWAP1 DUP2 MSTORE PUSH1 0x20 ADD PUSH1 0x0 KECCAK256 PUSH1 0x0 DUP4 DUP2 MSTORE PUSH1 0x20 ADD SWAP1 DUP2 MSTORE PUSH1 0x20 ADD PUSH1 0x0 KECCAK256 PUSH1 0x0 SWAP1 SLOAD SWAP1 PUSH2 0x100 EXP SWAP1 DIV PUSH1 0xFF AND SWAP1 POP SWAP3 SWAP2 POP POP JUMP JUMPDEST PUSH1 0x1 SLOAD DUP2 JUMP JUMPDEST PUSH1 0x60 PUSH1 0x0 DUP1 PUSH1 0x0 PUSH1 0x2 PUSH1 0x0 DUP7 DUP2 MSTORE PUSH1 0x20 ADD SWAP1 DUP2 MSTORE PUSH1 0x20 ADD PUSH1 0x0 KECCAK256 SWAP1 POP DUP1 PUSH1 0x0 ADD DUP2 PUSH1 0x1 ADD SLOAD DUP3 PUSH1 0x2 ADD SLOAD DUP3 DUP1 SLOAD PUSH2 0x779 SWAP1 PUSH2 0x14C3 JUMP JUMPDEST DUP1 PUSH1 0x1F ADD PUSH1 0x20 DUP1 SWAP2 DIV MUL PUSH1 0x20 ADD PUSH1 0x40 MLOAD SWAP1 DUP2 ADD PUSH1 0x40 MSTORE DUP1 SWAP3 SWAP2 SWAP1 DUP2 DUP2 MSTORE PUSH1 0x20 ADD DUP3 DUP1 SLOAD PUSH2 0x7A5 SWAP1 PUSH2 0x14C3 JUMP JUMPDEST DUP1 ISZERO PUSH2 0x7F2 JUMPI DUP1 PUSH1 0x1F LT PUSH2 0x7C7 JUMPI PUSH2 0x100 DUP1 DUP4 SLOAD DIV MUL DUP4 MSTORE SWAP2 PUSH1 0x20 ADD SWAP2 PUSH2 0x7F2 JUMP JUMPDEST DUP3 ADD SWAP2 SWAP1 PUSH1 0x0 MSTORE PUSH1 0x20 PUSH1 0x0 KECCAK256 SWAP1 JUMPDEST DUP2 SLOAD DUP2 MSTORE SWAP1 PUSH1 0x1 ADD SWAP1 PUSH1 0x20 ADD DUP1 DUP4 GT PUSH2 0x7D5 JUMPI DUP3 SWAP1 SUB PUSH1 0x1F AND DUP3 ADD SWAP2 JUMPDEST POP POP POP POP POP SWAP3 POP SWAP4 POP SWAP4 POP SWAP4 POP POP SWAP2 SWAP4 SWAP1 SWAP3 POP JUMP JUMPDEST PUSH1 0x0 PUSH1 0x2 PUSH1 0x0 DUP5 DUP2 MSTORE PUSH1 0x20 ADD SWAP1 DUP2 MSTORE PUSH1 0x20 ADD PUSH1 0x0 KECCAK256 SWAP1 POP DUP1 PUSH1 0x1 ADD SLOAD TIMESTAMP LT ISZERO DUP1 ISZERO PUSH2 0x836 JUMPI POP DUP1 PUSH1 0x2 ADD SLOAD TIMESTAMP GT ISZERO JUMPDEST PUSH2 0x875 JUMPI PUSH1 0x40 MLOAD PUSH32 0x8C379A000000000000000000000000000000000000000000000000000000000 DUP2 MSTORE PUSH1 0x4 ADD PUSH2 0x86C SWAP1 PUSH2 0x190D JUMP JUMPDEST PUSH1 0x40 MLOAD DUP1 SWAP2 SUB SWAP1 REVERT JUMPDEST PUSH1 0x0 PUSH1 0x4 PUSH1 0x0 DUP6 DUP2 MSTORE PUSH1 0x20 ADD SWAP1 DUP2 MSTORE PUSH1 0x20 ADD PUSH1 0x0 KECCAK256 PUSH1 0x0 CALLER PUSH20 0xFFFFFFFFFFFFFFFFFFFFFFFFFFFFFFFFFFFFFFFF AND PUSH20 0xFFFFFFFFFFFFFFFFFFFFFFFFFFFFFFFFFFFFFFFF AND DUP2 MSTORE PUSH1 0x20 ADD SWAP1 DUP2 MSTORE PUSH1 0x20 ADD PUSH1 0x0 KECCAK256 SLOAD SWAP1 POP PUSH1 0x0 DUP1 SHL DUP2 SUB PUSH2 0x90F JUMPI PUSH1 0x40 MLOAD PUSH32 0x8C379A000000000000000000000000000000000000000000000000000000000 DUP2 MSTORE PUSH1 0x4 ADD PUSH2 0x906 SWAP1 PUSH2 0x1979 JUMP JUMPDEST PUSH1 0x40 MLOAD DUP1 SWAP2 SUB SWAP1 REVERT JUMPDEST DUP2 PUSH1 0x5 ADD PUSH1 0x0 DUP3 DUP2 MSTORE PUSH1 0x20 ADD SWAP1 DUP2 MSTORE PUSH1 0x20 ADD PUSH1 0x0 KECCAK256 PUSH1 0x0 SWAP1 SLOAD SWAP1 PUSH2 0x100 EXP SWAP1 DIV PUSH1 0xFF AND ISZERO PUSH2 0x972 JUMPI PUSH1 0x40 MLOAD PUSH32 0x8C379A000000000000000000000000000000000000000000000000000000000 DUP2 MSTORE PUSH1 0x4 ADD PUSH2 0x969 SWAP1 PUSH2 0x19E5 JUMP JUMPDEST PUSH1 0x40 MLOAD DUP1 SWAP2 SUB SWAP1 REVERT JUMPDEST DUP2 PUSH1 0x4 ADD PUSH1 0x0 DUP5 DUP2 MSTORE PUSH1 0x20 ADD SWAP1 DUP2 MSTORE PUSH1 0x20 ADD PUSH1 0x0 KECCAK256 PUSH1 0x1 ADD PUSH1 0x0 DUP2 SLOAD DUP1 SWAP3 SWAP2 SWAP1 PUSH2 0x99B SWAP1 PUSH2 0x17A1 JUMP JUMPDEST SWAP2 SWAP1 POP SSTORE POP PUSH1 0x1 DUP3 PUSH1 0x5 ADD PUSH1 0x0 DUP4 DUP2 MSTORE PUSH1 0x20 ADD SWAP1 DUP2 MSTORE PUSH1 0x20 ADD PUSH1 0x0 KECCAK256 PUSH1 0x0 PUSH2 0x100 EXP DUP2 SLOAD DUP2 PUSH1 0xFF MUL NOT AND SWAP1 DUP4 ISZERO ISZERO MUL OR SWAP1 SSTORE POP POP POP POP POP JUMP JUMPDEST PUSH1 0x0 DUP1 PUSH1 0x0 SHL PUSH1 0x4 PUSH1 0x0 DUP6 DUP2 MSTORE PUSH1 0x20 ADD SWAP1 DUP2 MSTORE PUSH1 0x20 ADD PUSH1 0x0 KECCAK256 PUSH1 0x0 DUP5 PUSH20 0xFFFFFFFFFFFFFFFFFFFFFFFFFFFFFFFFFFFFFFFF AND PUSH20 0xFFFFFFFFFFFFFFFFFFFFFFFFFFFFFFFFFFFFFFFF AND DUP2 MSTORE PUSH1 0x20 ADD SWAP1 DUP2 MSTORE PUSH1 0x20 ADD PUSH1 0x0 KECCAK256 SLOAD EQ ISZERO SWAP1 POP SWAP3 SWAP2 POP POP JUMP JUMPDEST PUSH1 0x0 DUP1 PUSH1 0x4 PUSH1 0x0 DUP6 DUP2 MSTORE PUSH1 0x20 ADD SWAP1 DUP2 MSTORE PUSH1 0x20 ADD PUSH1 0x0 KECCAK256 PUSH1 0x0 DUP5 PUSH20 0xFFFFFFFFFFFFFFFFFFFFFFFFFFFFFFFFFFFFFFFF AND PUSH20 0xFFFFFFFFFFFFFFFFFFFFFFFFFFFFFFFFFFFFFFFF AND DUP2 MSTORE PUSH1 0x20 ADD SWAP1 DUP2 MSTORE PUSH1 0x20 ADD PUSH1 0x0 KECCAK256 SLOAD SWAP1 POP PUSH1 0x0 DUP1 SHL DUP2 SUB PUSH2 0xA9F JUMPI PUSH1 0x0 SWAP2 POP POP PUSH2 0xAD8 JUMP JUMPDEST PUSH1 0x2 PUSH1 0x0 DUP6 DUP2 MSTORE PUSH1 0x20 ADD SWAP1 DUP2 MSTORE PUSH1 0x20 ADD PUSH1 0x0 KECCAK256 PUSH1 0x5 ADD PUSH1 0x0 DUP3 DUP2 MSTORE PUSH1 0x20 ADD SWAP1 DUP2 MSTORE PUSH1 0x20 ADD PUSH1 0x0 KECCAK256 PUSH1 0x0 SWAP1 SLOAD SWAP1 PUSH2 0x100 EXP SWAP1 DIV PUSH1 0xFF AND SWAP2 POP POP JUMPDEST SWAP3 SWAP2 POP POP JUMP JUMPDEST PUSH1 0x3 PUSH1 0x20 MSTORE DUP2 PUSH1 0x0 MSTORE PUSH1 0x40 PUSH1 0x0 KECCAK256 PUSH1 0x20 MSTORE DUP1 PUSH1 0x0 MSTORE PUSH1 0x40 PUSH1 0x0 KECCAK256 PUSH1 0x0 SWAP2 POP SWAP2 POP SWAP1 SLOAD SWAP1 PUSH2 0x100 EXP SWAP1 DIV PUSH1 0xFF AND DUP2 JUMP JUMPDEST PUSH1 0x0 DUP1 SLOAD SWAP1 PUSH2 0x100 EXP SWAP1 DIV PUSH20 0xFFFFFFFFFFFFFFFFFFFFFFFFFFFFFFFFFFFFFFFF AND PUSH20 0xFFFFFFFFFFFFFFFFFFFFFFFFFFFFFFFFFFFFFFFF AND CALLER PUSH20 0xFFFFFFFFFFFFFFFFFFFFFFFFFFFFFFFFFFFFFFFF AND EQ PUSH2 0xB9B JUMPI PUSH1 0x40 MLOAD PUSH32 0x8C379A000000000000000000000000000000000000000000000000000000000 DUP2 MSTORE PUSH1 0x4 ADD PUSH2 0xB92 SWAP1 PUSH2 0x1474 JUMP JUMPDEST PUSH1 0x40 MLOAD DUP1 SWAP2 SUB SWAP1 REVERT JUMPDEST DUP1 DUP3 LT PUSH2 0xBDD JUMPI PUSH1 0x40 MLOAD PUSH32 0x8C379A000000000000000000000000000000000000000000000000000000000 DUP2 MSTORE PUSH1 0x4 ADD PUSH2 0xBD4 SWAP1 PUSH2 0x1A51 JUMP JUMPDEST PUSH1 0x40 MLOAD DUP1 SWAP2 SUB SWAP1 REVERT JUMPDEST DUP3 PUSH1 0x2 PUSH1 0x0 PUSH1 0x1 SLOAD DUP2 MSTORE PUSH1 0x20 ADD SWAP1 DUP2 MSTORE PUSH1 0x20 ADD PUSH1 0x0 KECCAK256 PUSH1 0x0 ADD SWAP1 DUP2 PUSH2 0xC02 SWAP2 SWAP1 PUSH2 0x16A0 JUMP JUMPDEST POP DUP2 PUSH1 0x2 PUSH1 0x0 PUSH1 0x1 SLOAD DUP2 MSTORE PUSH1 0x20 ADD SWAP1 DUP2 MSTORE PUSH1 0x20 ADD PUSH1 0x0 KECCAK256 PUSH1 0x1 ADD DUP2 SWAP1 SSTORE POP DUP1 PUSH1 0x2 PUSH1 0x0 PUSH1 0x1 SLOAD DUP2 MSTORE PUSH1 0x20 ADD SWAP1 DUP2 MSTORE PUSH1 0x20 ADD PUSH1 0x0 KECCAK256 PUSH1 0x2 ADD DUP2 SWAP1 SSTORE POP PUSH1 0x1 PUSH1 0x0 DUP2 SLOAD DUP1 SWAP3 SWAP2 SWAP1 PUSH2 0xC50 SWAP1 PUSH2 0x17A1 JUMP JUMPDEST SWAP2 SWAP1 POP SSTORE POP POP POP POP JUMP JUMPDEST PUSH1 0x0 DUP1 SLOAD SWAP1 PUSH2 0x100 EXP SWAP1 DIV PUSH20 0xFFFFFFFFFFFFFFFFFFFFFFFFFFFFFFFFFFFFFFFF AND DUP2 JUMP JUMPDEST PUSH1 0x0 DUP1 SLOAD SWAP1 PUSH2 0x100 EXP SWAP1 DIV PUSH20 0xFFFFFFFFFFFFFFFFFFFFFFFFFFFFFFFFFFFFFFFF AND PUSH20 0xFFFFFFFFFFFFFFFFFFFFFFFFFFFFFFFFFFFFFFFF AND CALLER PUSH20 0xFFFFFFFFFFFFFFFFFFFFFFFFFFFFFFFFFFFFFFFF AND EQ PUSH2 0xD0C JUMPI PUSH1 0x40 MLOAD PUSH32 0x8C379A000000000000000000000000000000000000000000000000000000000 DUP2 MSTORE PUSH1 0x4 ADD PUSH2 0xD03 SWAP1 PUSH2 0x1474 JUMP JUMPDEST PUSH1 0x40 MLOAD DUP1 SWAP2 SUB SWAP1 REVERT JUMPDEST PUSH1 0x0 JUMPDEST DUP2 MLOAD DUP2 LT ISZERO PUSH2 0xD82 JUMPI PUSH1 0x1 PUSH1 0x3 PUSH1 0x0 DUP6 DUP2 MSTORE PUSH1 0x20 ADD SWAP1 DUP2 MSTORE PUSH1 0x20 ADD PUSH1 0x0 KECCAK256 PUSH1 0x0 DUP5 DUP5 DUP2 MLOAD DUP2 LT PUSH2 0xD42 JUMPI PUSH2 0xD41 PUSH2 0x1A71 JUMP JUMPDEST JUMPDEST PUSH1 0x20 MUL PUSH1 0x20 ADD ADD MLOAD DUP2 MSTORE PUSH1 0x20 ADD SWAP1 DUP2 MSTORE PUSH1 0x20 ADD PUSH1 0x0 KECCAK256 PUSH1 0x0 PUSH2 0x100 EXP DUP2 SLOAD DUP2 PUSH1 0xFF MUL NOT AND SWAP1 DUP4 ISZERO ISZERO MUL OR SWAP1 SSTORE POP DUP1 DUP1 PUSH2 0xD7A SWAP1 PUSH2 0x17A1 JUMP JUMPDEST SWAP2 POP POP PUSH2 0xD0F JUMP JUMPDEST POP POP POP JUMP JUMPDEST PUSH1 0x0 PUSH1 0x40 MLOAD SWAP1 POP SWAP1 JUMP JUMPDEST PUSH1 0x0 DUP1 REVERT JUMPDEST PUSH1 0x0 DUP1 REVERT JUMPDEST PUSH1 0x0 DUP2 SWAP1 POP SWAP2 SWAP1 POP JUMP JUMPDEST PUSH2 0xDAE DUP2 PUSH2 0xD9B JUMP JUMPDEST DUP2 EQ PUSH2 0xDB9 JUMPI PUSH1 0x0 DUP1 REVERT JUMPDEST POP JUMP JUMPDEST PUSH1 0x0 DUP2 CALLDATALOAD SWAP1 POP PUSH2 0xDCB DUP2 PUSH2 0xDA5 JUMP JUMPDEST SWAP3 SWAP2 POP POP JUMP JUMPDEST PUSH1 0x0 DUP1 REVERT JUMPDEST PUSH1 0x0 DUP1 REVERT JUMPDEST PUSH1 0x0 PUSH1 0x1F NOT PUSH1 0x1F DUP4 ADD AND SWAP1 POP SWAP2 SWAP1 POP JUMP JUMPDEST PUSH32 0x4E487B7100000000000000000000000000000000000000000000000000000000 PUSH1 0x0 MSTORE PUSH1 0x41 PUSH1 0x4 MSTORE PUSH1 0x24 PUSH1 0x0 REVERT JUMPDEST PUSH2 0xE24 DUP3 PUSH2 0xDDB JUMP JUMPDEST DUP2 ADD DUP2 DUP2 LT PUSH8 0xFFFFFFFFFFFFFFFF DUP3 GT OR ISZERO PUSH2 0xE43 JUMPI PUSH2 0xE42 PUSH2 0xDEC JUMP JUMPDEST JUMPDEST DUP1 PUSH1 0x40 MSTORE POP POP POP JUMP JUMPDEST PUSH1 0x0 PUSH2 0xE56 PUSH2 0xD87 JUMP JUMPDEST SWAP1 POP PUSH2 0xE62 DUP3 DUP3 PUSH2 0xE1B JUMP JUMPDEST SWAP2 SWAP1 POP JUMP JUMPDEST PUSH1 0x0 PUSH8 0xFFFFFFFFFFFFFFFF DUP3 GT ISZERO PUSH2 0xE82 JUMPI PUSH2 0xE81 PUSH2 0xDEC JUMP JUMPDEST JUMPDEST PUSH2 0xE8B DUP3 PUSH2 0xDDB JUMP JUMPDEST SWAP1 POP PUSH1 0x20 DUP2 ADD SWAP1 POP SWAP2 SWAP1 POP JUMP JUMPDEST DUP3 DUP2 DUP4 CALLDATACOPY PUSH1 0x0 DUP4 DUP4 ADD MSTORE POP POP POP JUMP JUMPDEST PUSH1 0x0 PUSH2 0xEBA PUSH2 0xEB5 DUP5 PUSH2 0xE67 JUMP JUMPDEST PUSH2 0xE4C JUMP JUMPDEST SWAP1 POP DUP3 DUP2 MSTORE PUSH1 0x20 DUP2 ADD DUP5 DUP5 DUP5 ADD GT ISZERO PUSH2 0xED6 JUMPI PUSH2 0xED5 PUSH2 0xDD6 JUMP JUMPDEST JUMPDEST PUSH2 0xEE1 DUP5 DUP3 DUP6 PUSH2 0xE98 JUMP JUMPDEST POP SWAP4 SWAP3 POP POP POP JUMP JUMPDEST PUSH1 0x0 DUP3 PUSH1 0x1F DUP4 ADD SLT PUSH2 0xEFE JUMPI PUSH2 0xEFD PUSH2 0xDD1 JUMP JUMPDEST JUMPDEST DUP2 CALLDATALOAD PUSH2 0xF0E DUP5 DUP3 PUSH1 0x20 DUP7 ADD PUSH2 0xEA7 JUMP JUMPDEST SWAP2 POP POP SWAP3 SWAP2 POP POP JUMP JUMPDEST PUSH1 0x0 DUP1 PUSH1 0x40 DUP4 DUP6 SUB SLT ISZERO PUSH2 0xF2E JUMPI PUSH2 0xF2D PUSH2 0xD91 JUMP JUMPDEST JUMPDEST PUSH1 0x0 PUSH2 0xF3C DUP6 DUP3 DUP7 ADD PUSH2 0xDBC JUMP JUMPDEST SWAP3 POP POP PUSH1 0x20 DUP4 ADD CALLDATALOAD PUSH8 0xFFFFFFFFFFFFFFFF DUP2 GT ISZERO PUSH2 0xF5D JUMPI PUSH2 0xF5C PUSH2 0xD96 JUMP JUMPDEST JUMPDEST PUSH2 0xF69 DUP6 DUP3 DUP7 ADD PUSH2 0xEE9 JUMP JUMPDEST SWAP2 POP POP SWAP3 POP SWAP3 SWAP1 POP JUMP JUMPDEST PUSH1 0x0 PUSH20 0xFFFFFFFFFFFFFFFFFFFFFFFFFFFFFFFFFFFFFFFF DUP3 AND SWAP1 POP SWAP2 SWAP1 POP JUMP JUMPDEST PUSH1 0x0 PUSH2 0xF9E DUP3 PUSH2 0xF73 JUMP JUMPDEST SWAP1 POP SWAP2 SWAP1 POP JUMP JUMPDEST PUSH2 0xFAE DUP2 PUSH2 0xF93 JUMP JUMPDEST DUP2 EQ PUSH2 0xFB9 JUMPI PUSH1 0x0 DUP1 REVERT JUMPDEST POP JUMP JUMPDEST PUSH1 0x0 DUP2 CALLDATALOAD SWAP1 POP PUSH2 0xFCB DUP2 PUSH2 0xFA5 JUMP JUMPDEST SWAP3 SWAP2 POP POP JUMP JUMPDEST PUSH1 0x0 DUP1 PUSH1 0x40 DUP4 DUP6 SUB SLT ISZERO PUSH2 0xFE8 JUMPI PUSH2 0xFE7 PUSH2 0xD91 JUMP JUMPDEST JUMPDEST PUSH1 0x0 PUSH2 0xFF6 DUP6 DUP3 DUP7 ADD PUSH2 0xDBC JUMP JUMPDEST SWAP3 POP POP PUSH1 0x20 PUSH2 0x1007 DUP6 DUP3 DUP7 ADD PUSH2 0xFBC JUMP JUMPDEST SWAP2 POP POP SWAP3 POP SWAP3 SWAP1 POP JUMP JUMPDEST PUSH1 0x0 DUP2 SWAP1 POP SWAP2 SWAP1 POP JUMP JUMPDEST PUSH2 0x1024 DUP2 PUSH2 0x1011 JUMP JUMPDEST DUP3 MSTORE POP POP JUMP JUMPDEST PUSH1 0x0 PUSH1 0x20 DUP3 ADD SWAP1 POP PUSH2 0x103F PUSH1 0x0 DUP4 ADD DUP5 PUSH2 0x101B JUMP JUMPDEST SWAP3 SWAP2 POP POP JUMP JUMPDEST PUSH2 0x104E DUP2 PUSH2 0xD9B JUMP JUMPDEST DUP3 MSTORE POP POP JUMP JUMPDEST PUSH1 0x0 PUSH1 0x20 DUP3 ADD SWAP1 POP PUSH2 0x1069 PUSH1 0x0 DUP4 ADD DUP5 PUSH2 0x1045 JUMP JUMPDEST SWAP3 SWAP2 POP POP JUMP JUMPDEST PUSH1 0x0 PUSH1 0x20 DUP3 DUP5 SUB SLT ISZERO PUSH2 0x1085 JUMPI PUSH2 0x1084 PUSH2 0xD91 JUMP JUMPDEST JUMPDEST PUSH1 0x0 PUSH2 0x1093 DUP5 DUP3 DUP6 ADD PUSH2 0xDBC JUMP JUMPDEST SWAP2 POP POP SWAP3 SWAP2 POP POP JUMP JUMPDEST PUSH2 0x10A5 DUP2 PUSH2 0x1011 JUMP JUMPDEST DUP2 EQ PUSH2 0x10B0 JUMPI PUSH1 0x0 DUP1 REVERT JUMPDEST POP JUMP JUMPDEST PUSH1 0x0 DUP2 CALLDATALOAD SWAP1 POP PUSH2 0x10C2 DUP2 PUSH2 0x109C JUMP JUMPDEST SWAP3 SWAP2 POP POP JUMP JUMPDEST PUSH1 0x0 DUP1 PUSH1 0x40 DUP4 DUP6 SUB SLT ISZERO PUSH2 0x10DF JUMPI PUSH2 0x10DE PUSH2 0xD91 JUMP JUMPDEST JUMPDEST PUSH1 0x0 PUSH2 0x10ED DUP6 DUP3 DUP7 ADD PUSH2 0xDBC JUMP JUMPDEST SWAP3 POP POP PUSH1 0x20 PUSH2 0x10FE DUP6 DUP3 DUP7 ADD PUSH2 0x10B3 JUMP JUMPDEST SWAP2 POP POP SWAP3 POP SWAP3 SWAP1 POP JUMP JUMPDEST PUSH1 0x0 DUP1 PUSH1 0x40 DUP4 DUP6 SUB SLT ISZERO PUSH2 0x111F JUMPI PUSH2 0x111E PUSH2 0xD91 JUMP JUMPDEST JUMPDEST PUSH1 0x0 PUSH2 0x112D DUP6 DUP3 DUP7 ADD PUSH2 0xDBC JUMP JUMPDEST SWAP3 POP POP PUSH1 0x20 PUSH2 0x113E DUP6 DUP3 DUP7 ADD PUSH2 0xDBC JUMP JUMPDEST SWAP2 POP POP SWAP3 POP SWAP3 SWAP1 POP JUMP JUMPDEST PUSH1 0x0 DUP2 MLOAD SWAP1 POP SWAP2 SWAP1 POP JUMP JUMPDEST PUSH1 0x0 DUP3 DUP3 MSTORE PUSH1 0x20 DUP3 ADD SWAP1 POP SWAP3 SWAP2 POP POP JUMP JUMPDEST PUSH1 0x0 JUMPDEST DUP4 DUP2 LT ISZERO PUSH2 0x1182 JUMPI DUP1 DUP3 ADD MLOAD DUP2 DUP5 ADD MSTORE PUSH1 0x20 DUP2 ADD SWAP1 POP PUSH2 0x1167 JUMP JUMPDEST PUSH1 0x0 DUP5 DUP5 ADD MSTORE POP POP POP POP JUMP JUMPDEST PUSH1 0x0 PUSH2 0x1199 DUP3 PUSH2 0x1148 JUMP JUMPDEST PUSH2 0x11A3 DUP2 DUP6 PUSH2 0x1153 JUMP JUMPDEST SWAP4 POP PUSH2 0x11B3 DUP2 DUP6 PUSH1 0x20 DUP7 ADD PUSH2 0x1164 JUMP JUMPDEST PUSH2 0x11BC DUP2 PUSH2 0xDDB JUMP JUMPDEST DUP5 ADD SWAP2 POP POP SWAP3 SWAP2 POP POP JUMP JUMPDEST PUSH1 0x0 PUSH1 0x40 DUP3 ADD SWAP1 POP DUP2 DUP2 SUB PUSH1 0x0 DUP4 ADD MSTORE PUSH2 0x11E1 DUP2 DUP6 PUSH2 0x118E JUMP JUMPDEST SWAP1 POP PUSH2 0x11F0 PUSH1 0x20 DUP4 ADD DUP5 PUSH2 0x1045 JUMP JUMPDEST SWAP4 SWAP3 POP POP POP JUMP JUMPDEST PUSH1 0x0 DUP2 ISZERO ISZERO SWAP1 POP SWAP2 SWAP1 POP JUMP JUMPDEST PUSH2 0x120C DUP2 PUSH2 0x11F7 JUMP JUMPDEST DUP3 MSTORE POP POP JUMP JUMPDEST PUSH1 0x0 PUSH1 0x20 DUP3 ADD SWAP1 POP PUSH2 0x1227 PUSH1 0x0 DUP4 ADD DUP5 PUSH2 0x1203 JUMP JUMPDEST SWAP3 SWAP2 POP POP JUMP JUMPDEST PUSH1 0x0 PUSH1 0x60 DUP3 ADD SWAP1 POP DUP2 DUP2 SUB PUSH1 0x0 DUP4 ADD MSTORE PUSH2 0x1247 DUP2 DUP7 PUSH2 0x118E JUMP JUMPDEST SWAP1 POP PUSH2 0x1256 PUSH1 0x20 DUP4 ADD DUP6 PUSH2 0x1045 JUMP JUMPDEST PUSH2 0x1263 PUSH1 0x40 DUP4 ADD DUP5 PUSH2 0x1045 JUMP JUMPDEST SWAP5 SWAP4 POP POP POP POP JUMP JUMPDEST PUSH1 0x0 DUP1 PUSH1 0x0 PUSH1 0x60 DUP5 DUP7 SUB SLT ISZERO PUSH2 0x1284 JUMPI PUSH2 0x1283 PUSH2 0xD91 JUMP JUMPDEST JUMPDEST PUSH1 0x0 DUP5 ADD CALLDATALOAD PUSH8 0xFFFFFFFFFFFFFFFF DUP2 GT ISZERO PUSH2 0x12A2 JUMPI PUSH2 0x12A1 PUSH2 0xD96 JUMP JUMPDEST JUMPDEST PUSH2 0x12AE DUP7 DUP3 DUP8 ADD PUSH2 0xEE9 JUMP JUMPDEST SWAP4 POP POP PUSH1 0x20 PUSH2 0x12BF DUP7 DUP3 DUP8 ADD PUSH2 0xDBC JUMP JUMPDEST SWAP3 POP POP PUSH1 0x40 PUSH2 0x12D0 DUP7 DUP3 DUP8 ADD PUSH2 0xDBC JUMP JUMPDEST SWAP2 POP POP SWAP3 POP SWAP3 POP SWAP3 JUMP JUMPDEST PUSH2 0x12E3 DUP2 PUSH2 0xF93 JUMP JUMPDEST DUP3 MSTORE POP POP JUMP JUMPDEST PUSH1 0x0 PUSH1 0x20 DUP3 ADD SWAP1 POP PUSH2 0x12FE PUSH1 0x0 DUP4 ADD DUP5 PUSH2 0x12DA JUMP JUMPDEST SWAP3 SWAP2 POP POP JUMP JUMPDEST PUSH1 0x0 PUSH8 0xFFFFFFFFFFFFFFFF DUP3 GT ISZERO PUSH2 0x131F JUMPI PUSH2 0x131E PUSH2 0xDEC JUMP JUMPDEST JUMPDEST PUSH1 0x20 DUP3 MUL SWAP1 POP PUSH1 0x20 DUP2 ADD SWAP1 POP SWAP2 SWAP1 POP JUMP JUMPDEST PUSH1 0x0 DUP1 REVERT JUMPDEST PUSH1 0x0 PUSH2 0x1348 PUSH2 0x1343 DUP5 PUSH2 0x1304 JUMP JUMPDEST PUSH2 0xE4C JUMP JUMPDEST SWAP1 POP DUP1 DUP4 DUP3 MSTORE PUSH1 0x20 DUP3 ADD SWAP1 POP PUSH1 0x20 DUP5 MUL DUP4 ADD DUP6 DUP2 GT ISZERO PUSH2 0x136B JUMPI PUSH2 0x136A PUSH2 0x1330 JUMP JUMPDEST JUMPDEST DUP4 JUMPDEST DUP2 DUP2 LT ISZERO PUSH2 0x1394 JUMPI DUP1 PUSH2 0x1380 DUP9 DUP3 PUSH2 0x10B3 JUMP JUMPDEST DUP5 MSTORE PUSH1 0x20 DUP5 ADD SWAP4 POP POP PUSH1 0x20 DUP2 ADD SWAP1 POP PUSH2 0x136D JUMP JUMPDEST POP POP POP SWAP4 SWAP3 POP POP POP JUMP JUMPDEST PUSH1 0x0 DUP3 PUSH1 0x1F DUP4 ADD SLT PUSH2 0x13B3 JUMPI PUSH2 0x13B2 PUSH2 0xDD1 JUMP JUMPDEST JUMPDEST DUP2 CALLDATALOAD PUSH2 0x13C3 DUP5 DUP3 PUSH1 0x20 DUP7 ADD PUSH2 0x1335 JUMP JUMPDEST SWAP2 POP POP SWAP3 SWAP2 POP POP JUMP JUMPDEST PUSH1 0x0 DUP1 PUSH1 0x40 DUP4 DUP6 SUB SLT ISZERO PUSH2 0x13E3 JUMPI PUSH2 0x13E2 PUSH2 0xD91 JUMP JUMPDEST JUMPDEST PUSH1 0x0 PUSH2 0x13F1 DUP6 DUP3 DUP7 ADD PUSH2 0xDBC JUMP JUMPDEST SWAP3 POP POP PUSH1 0x20 DUP4 ADD CALLDATALOAD PUSH8 0xFFFFFFFFFFFFFFFF DUP2 GT ISZERO PUSH2 0x1412 JUMPI PUSH2 0x1411 PUSH2 0xD96 JUMP JUMPDEST JUMPDEST PUSH2 0x141E DUP6 DUP3 DUP7 ADD PUSH2 0x139E JUMP JUMPDEST SWAP2 POP POP SWAP3 POP SWAP3 SWAP1 POP JUMP JUMPDEST PUSH32 0x4F6E6C792061646D696E20616C6C6F7765640000000000000000000000000000 PUSH1 0x0 DUP3 ADD MSTORE POP JUMP JUMPDEST PUSH1 0x0 PUSH2 0x145E PUSH1 0x12 DUP4 PUSH2 0x1153 JUMP JUMPDEST SWAP2 POP PUSH2 0x1469 DUP3 PUSH2 0x1428 JUMP JUMPDEST PUSH1 0x20 DUP3 ADD SWAP1 POP SWAP2 SWAP1 POP JUMP JUMPDEST PUSH1 0x0 PUSH1 0x20 DUP3 ADD SWAP1 POP DUP2 DUP2 SUB PUSH1 0x0 DUP4 ADD MSTORE PUSH2 0x148D DUP2 PUSH2 0x1451 JUMP JUMPDEST SWAP1 POP SWAP2 SWAP1 POP JUMP JUMPDEST PUSH32 0x4E487B7100000000000000000000000000000000000000000000000000000000 PUSH1 0x0 MSTORE PUSH1 0x22 PUSH1 0x4 MSTORE PUSH1 0x24 PUSH1 0x0 REVERT JUMPDEST PUSH1 0x0 PUSH1 0x2 DUP3 DIV SWAP1 POP PUSH1 0x1 DUP3 AND DUP1 PUSH2 0x14DB JUMPI PUSH1 0x7F DUP3 AND SWAP2 POP JUMPDEST PUSH1 0x20 DUP3 LT DUP2 SUB PUSH2 0x14EE JUMPI PUSH2 0x14ED PUSH2 0x1494 JUMP JUMPDEST JUMPDEST POP SWAP2 SWAP1 POP JUMP JUMPDEST PUSH1 0x0 DUP2 SWAP1 POP DUP2 PUSH1 0x0 MSTORE PUSH1 0x20 PUSH1 0x0 KECCAK256 SWAP1 POP SWAP2 SWAP1 POP JUMP JUMPDEST PUSH1 0x0 PUSH1 0x20 PUSH1 0x1F DUP4 ADD DIV SWAP1 POP SWAP2 SWAP1 POP JUMP JUMPDEST PUSH1 0x0 DUP3 DUP3 SHL SWAP1 POP SWAP3 SWAP2 POP POP JUMP JUMPDEST PUSH1 0x0 PUSH1 0x8 DUP4 MUL PUSH2 0x1556 PUSH32 0xFFFFFFFFFFFFFFFFFFFFFFFFFFFFFFFFFFFFFFFFFFFFFFFFFFFFFFFFFFFFFFFF DUP3 PUSH2 0x1519 JUMP JUMPDEST PUSH2 0x1560 DUP7 DUP4 PUSH2 0x1519 JUMP JUMPDEST SWAP6 POP DUP1 NOT DUP5 AND SWAP4 POP DUP1 DUP7 AND DUP5 OR SWAP3 POP POP POP SWAP4 SWAP3 POP POP POP JUMP JUMPDEST PUSH1 0x0 DUP2 SWAP1 POP SWAP2 SWAP1 POP JUMP JUMPDEST PUSH1 0x0 PUSH2 0x159D PUSH2 0x1598 PUSH2 0x1593 DUP5 PUSH2 0xD9B JUMP JUMPDEST PUSH2 0x1578 JUMP JUMPDEST PUSH2 0xD9B JUMP JUMPDEST SWAP1 POP SWAP2 SWAP1 POP JUMP JUMPDEST PUSH1 0x0 DUP2 SWAP1 POP SWAP2 SWAP1 POP JUMP JUMPDEST PUSH2 0x15B7 DUP4 PUSH2 0x1582 JUMP JUMPDEST PUSH2 0x15CB PUSH2 0x15C3 DUP3 PUSH2 0x15A4 JUMP JUMPDEST DUP5 DUP5 SLOAD PUSH2 0x1526 JUMP JUMPDEST DUP3 SSTORE POP POP POP POP JUMP JUMPDEST PUSH1 0x0 SWAP1 JUMP JUMPDEST PUSH2 0x15E0 PUSH2 0x15D3 JUMP JUMPDEST PUSH2 0x15EB DUP2 DUP5 DUP5 PUSH2 0x15AE JUMP JUMPDEST POP POP POP JUMP JUMPDEST JUMPDEST DUP2 DUP2 LT ISZERO PUSH2 0x160F JUMPI PUSH2 0x1604 PUSH1 0x0 DUP3 PUSH2 0x15D8 JUMP JUMPDEST PUSH1 0x1 DUP2 ADD SWAP1 POP PUSH2 0x15F1 JUMP JUMPDEST POP POP JUMP JUMPDEST PUSH1 0x1F DUP3 GT ISZERO PUSH2 0x1654 JUMPI PUSH2 0x1625 DUP2 PUSH2 0x14F4 JUMP JUMPDEST PUSH2 0x162E DUP5 PUSH2 0x1509 JUMP JUMPDEST DUP2 ADD PUSH1 0x20 DUP6 LT ISZERO PUSH2 0x163D JUMPI DUP2 SWAP1 POP JUMPDEST PUSH2 0x1651 PUSH2 0x1649 DUP6 PUSH2 0x1509 JUMP JUMPDEST DUP4 ADD DUP3 PUSH2 0x15F0 JUMP JUMPDEST POP POP JUMPDEST POP POP POP JUMP JUMPDEST PUSH1 0x0 DUP3 DUP3 SHR SWAP1 POP SWAP3 SWAP2 POP POP JUMP JUMPDEST PUSH1 0x0 PUSH2 0x1677 PUSH1 0x0 NOT DUP5 PUSH1 0x8 MUL PUSH2 0x1659 JUMP JUMPDEST NOT DUP1 DUP4 AND SWAP2 POP POP SWAP3 SWAP2 POP POP JUMP JUMPDEST PUSH1 0x0 PUSH2 0x1690 DUP4 DUP4 PUSH2 0x1666 JUMP JUMPDEST SWAP2 POP DUP3 PUSH1 0x2 MUL DUP3 OR SWAP1 POP SWAP3 SWAP2 POP POP JUMP JUMPDEST PUSH2 0x16A9 DUP3 PUSH2 0x1148 JUMP JUMPDEST PUSH8 0xFFFFFFFFFFFFFFFF DUP2 GT ISZERO PUSH2 0x16C2 JUMPI PUSH2 0x16C1 PUSH2 0xDEC JUMP JUMPDEST JUMPDEST PUSH2 0x16CC DUP3 SLOAD PUSH2 0x14C3 JUMP JUMPDEST PUSH2 0x16D7 DUP3 DUP3 DUP6 PUSH2 0x1613 JUMP JUMPDEST PUSH1 0x0 PUSH1 0x20 SWAP1 POP PUSH1 0x1F DUP4 GT PUSH1 0x1 DUP2 EQ PUSH2 0x170A JUMPI PUSH1 0x0 DUP5 ISZERO PUSH2 0x16F8 JUMPI DUP3 DUP8 ADD MLOAD SWAP1 POP JUMPDEST PUSH2 0x1702 DUP6 DUP3 PUSH2 0x1684 JUMP JUMPDEST DUP7 SSTORE POP PUSH2 0x176A JUMP JUMPDEST PUSH1 0x1F NOT DUP5 AND PUSH2 0x1718 DUP7 PUSH2 0x14F4 JUMP JUMPDEST PUSH1 0x0 JUMPDEST DUP3 DUP2 LT ISZERO PUSH2 0x1740 JUMPI DUP5 DUP10 ADD MLOAD DUP3 SSTORE PUSH1 0x1 DUP3 ADD SWAP2 POP PUSH1 0x20 DUP6 ADD SWAP5 POP PUSH1 0x20 DUP2 ADD SWAP1 POP PUSH2 0x171B JUMP JUMPDEST DUP7 DUP4 LT ISZERO PUSH2 0x175D JUMPI DUP5 DUP10 ADD MLOAD PUSH2 0x1759 PUSH1 0x1F DUP10 AND DUP3 PUSH2 0x1666 JUMP JUMPDEST DUP4 SSTORE POP JUMPDEST PUSH1 0x1 PUSH1 0x2 DUP9 MUL ADD DUP9 SSTORE POP POP POP JUMPDEST POP POP POP POP POP POP JUMP JUMPDEST PUSH32 0x4E487B7100000000000000000000000000000000000000000000000000000000 PUSH1 0x0 MSTORE PUSH1 0x11 PUSH1 0x4 MSTORE PUSH1 0x24 PUSH1 0x0 REVERT JUMPDEST PUSH1 0x0 PUSH2 0x17AC DUP3 PUSH2 0xD9B JUMP JUMPDEST SWAP2 POP PUSH32 0xFFFFFFFFFFFFFFFFFFFFFFFFFFFFFFFFFFFFFFFFFFFFFFFFFFFFFFFFFFFFFFFF DUP3 SUB PUSH2 0x17DE JUMPI PUSH2 0x17DD PUSH2 0x1772 JUMP JUMPDEST JUMPDEST PUSH1 0x1 DUP3 ADD SWAP1 POP SWAP2 SWAP1 POP JUMP JUMPDEST PUSH32 0x4E6F742077686974656C69737465640000000000000000000000000000000000 PUSH1 0x0 DUP3 ADD MSTORE POP JUMP JUMPDEST PUSH1 0x0 PUSH2 0x181F PUSH1 0xF DUP4 PUSH2 0x1153 JUMP JUMPDEST SWAP2 POP PUSH2 0x182A DUP3 PUSH2 0x17E9 JUMP JUMPDEST PUSH1 0x20 DUP3 ADD SWAP1 POP SWAP2 SWAP1 POP JUMP JUMPDEST PUSH1 0x0 PUSH1 0x20 DUP3 ADD SWAP1 POP DUP2 DUP2 SUB PUSH1 0x0 DUP4 ADD MSTORE PUSH2 0x184E DUP2 PUSH2 0x1812 JUMP JUMPDEST SWAP1 POP SWAP2 SWAP1 POP JUMP JUMPDEST PUSH32 0x416C726561647920726567697374657265640000000000000000000000000000 PUSH1 0x0 DUP3 ADD MSTORE POP JUMP JUMPDEST PUSH1 0x0 PUSH2 0x188B PUSH1 0x12 DUP4 PUSH2 0x1153 JUMP JUMPDEST SWAP2 POP PUSH2 0x1896 DUP3 PUSH2 0x1855 JUMP JUMPDEST PUSH1 0x20 DUP3 ADD SWAP1 POP SWAP2 SWAP1 POP JUMP JUMPDEST PUSH1 0x0 PUSH1 0x20 DUP3 ADD SWAP1 POP DUP2 DUP2 SUB PUSH1 0x0 DUP4 ADD MSTORE PUSH2 0x18BA DUP2 PUSH2 0x187E JUMP JUMPDEST SWAP1 POP SWAP2 SWAP1 POP JUMP JUMPDEST PUSH32 0x456C656374696F6E206E6F742061637469766500000000000000000000000000 PUSH1 0x0 DUP3 ADD MSTORE POP JUMP JUMPDEST PUSH1 0x0 PUSH2 0x18F7 PUSH1 0x13 DUP4 PUSH2 0x1153 JUMP JUMPDEST SWAP2 POP PUSH2 0x1902 DUP3 PUSH2 0x18C1 JUMP JUMPDEST PUSH1 0x20 DUP3 ADD SWAP1 POP SWAP2 SWAP1 POP JUMP JUMPDEST PUSH1 0x0 PUSH1 0x20 DUP3 ADD SWAP1 POP DUP2 DUP2 SUB PUSH1 0x0 DUP4 ADD MSTORE PUSH2 0x1926 DUP2 PUSH2 0x18EA JUMP JUMPDEST SWAP1 POP SWAP2 SWAP1 POP JUMP JUMPDEST PUSH32 0x4E6F742072656769737465726564000000000000000000000000000000000000 PUSH1 0x0 DUP3 ADD MSTORE POP JUMP JUMPDEST PUSH1 0x0 PUSH2 0x1963 PUSH1 0xE DUP4 PUSH2 0x1153 JUMP JUMPDEST SWAP2 POP PUSH2 0x196E DUP3 PUSH2 0x192D JUMP JUMPDEST PUSH1 0x20 DUP3 ADD SWAP1 POP SWAP2 SWAP1 POP JUMP JUMPDEST PUSH1 0x0 PUSH1 0x20 DUP3 ADD SWAP1 POP DUP2 DUP2 SUB PUSH1 0x0 DUP4 ADD MSTORE PUSH2 0x1992 DUP2 PUSH2 0x1956 JUMP JUMPDEST SWAP1 POP SWAP2 SWAP1 POP JUMP JUMPDEST PUSH32 0x416C726561647920766F74656400000000000000000000000000000000000000 PUSH1 0x0 DUP3 ADD MSTORE POP JUMP JUMPDEST PUSH1 0x0 PUSH2 0x19CF PUSH1 0xD DUP4 PUSH2 0x1153 JUMP JUMPDEST SWAP2 POP PUSH2 0x19DA DUP3 PUSH2 0x1999 JUMP JUMPDEST PUSH1 0x20 DUP3 ADD SWAP1 POP SWAP2 SWAP1 POP JUMP JUMPDEST PUSH1 0x0 PUSH1 0x20 DUP3 ADD SWAP1 POP DUP2 DUP2 SUB PUSH1 0x0 DUP4 ADD MSTORE PUSH2 0x19FE DUP2 PUSH2 0x19C2 JUMP JUMPDEST SWAP1 POP SWAP2 SWAP1 POP JUMP JUMPDEST PUSH32 0x496E76616C69642074696D650000000000000000000000000000000000000000 PUSH1 0x0 DUP3 ADD MSTORE POP JUMP JUMPDEST PUSH1 0x0 PUSH2 0x1A3B PUSH1 0xC DUP4 PUSH2 0x1153 JUMP JUMPDEST SWAP2 POP PUSH2 0x1A46 DUP3 PUSH2 0x1A05 JUMP JUMPDEST PUSH1 0x20 DUP3 ADD SWAP1 POP SWAP2 SWAP1 POP JUMP JUMPDEST PUSH1 0x0 PUSH1 0x20 DUP3 ADD SWAP1 POP DUP2 DUP2 SUB PUSH1 0x0 DUP4 ADD MSTORE PUSH2 0x1A6A DUP2 PUSH2 0x1A2E JUMP JUMPDEST SWAP1 POP SWAP2 SWAP1 POP JUMP JUMPDEST PUSH32 0x4E487B7100000000000000000000000000000000000000000000000000000000 PUSH1 0x0 MSTORE PUSH1 0x32 PUSH1 0x4 MSTORE PUSH1 0x24 PUSH1 0x0 REVERT INVALID LOG2 PUSH5 0x6970667358 0x22 SLT KECCAK256 0x2B 0x2A 0xDC JUMPDEST SAR BASEFEE 0xC8 PUSH6 0x973C96112640 0xE6 SWAP15 0xEB PUSH29 0x3F6B56499EE6F6140DBD1C4CA80C64736F6C6343000814003300000000 "},"methodIdentifiers":{"addCandidate(uint256,string)":"1750a3d0","admin()":"f851a440","createElection(string,uint256,uint256)":"f49a7a17","electionCount()":"997d2830","getCandidate(uint256,uint256)":"4bd46448","getCandidateCount(uint256)":"26f6a2aa","getElection(uint256)":"9d710777","getElectionCount()":"213785a0","hasAlreadyVoted(uint256,address)":"c14bfd29","isRegistered(uint256,address)":"b81f6e18","isWhitelisted(uint256,bytes32)":"6909fd44","register(uint256,bytes32)":"2965d809","registeredVoterId(uint256,address)":"1a5455fc","validVoterId(uint256,bytes32)":"f0ba55e0","vote(uint256,uint256)":"b384abef","whitelistMultipleVoterIds(uint256,bytes32[])":"fe0af8f7"}}}}}