{
  "_format": "hh-sol-artifact-1",
  "contractName": "Voting",
  "sourceName": "contracts/Voting.sol",
  "abi": [
    {
      "inputs": [],
      "stateMutability": "nonpayable",
      "type": "constructor"
    },
    {
      "inputs": [
        {
          "internalType": "uint256",
          "name": "_electionId",
          "type": "uint256"
        },
        {
          "internalType": "string",
          "name": "_name",
          "type": "string"
        }
      ],
      "name": "addCandidate",
      "outputs": [],
      "stateMutability": "nonpayable",
      "type": "function"
    },
    {
      "inputs": [],
      "name": "admin",
      "outputs": [
        {
          "internalType": "address",
          "name": "",
          "type": "address"
        }
      ],
      "stateMutability": "view",
      "type": "function"
    },
    {
      "inputs": [
        {
          "internalType": "string",
          "name": "_name",
          "type": "string"
        },
        {
          "internalType": "uint256",
          "name": "_startTime",
          "type": "uint256"
        },
        {
          "internalType": "uint256",
          "name": "_endTime",
          "type": "uint256"
        }
      ],
      "name": "createElection",
      "outputs": [],
      "stateMutability": "nonpayable",
      "type": "function"
    },
    {
      "inputs": [],
      "name": "electionCount",
      "outputs": [
        {
          "internalType": "uint256",
          "name": "",
          "type": "uint256"
        }
      ],
      "stateMutability": "view",
      "type": "function"
    },
    {
      "inputs": [
        {
          "internalType": "uint256",
          "name": "_electionId",
          "type": "uint256"
        },
        {
          "internalType": "uint256",
          "name": "_candidateId",
          "type": "uint256"
        }
      ],
      "name": "getCandidate",
      "outputs": [
        {
          "internalType": "string",
          "name": "",
          "type": "string"
        },
        {
          "internalType": "uint256",
          "name": "",
          "type": "uint256"
        }
      ],
      "stateMutability": "view",
      "type": "function"
    },
    {
      "inputs": [
        {
          "internalType": "uint256",
          "name": "_electionId",
          "type": "uint256"
        }
      ],
      "name": "getCandidateCount",
      "outputs": [
        {
          "internalType": "uint256",
          "name": "",
          "type": "uint256"
        }
      ],
      "stateMutability": "view",
      "type": "function"
    },
    {
      "inputs": [
        {
          "internalType": "uint256",
          "name": "_electionId",
          "type": "uint256"
        }
      ],
      "name": "getElection",
      "outputs": [
        {
          "internalType": "string",
          "name": "",
          "type": "string"
        },
        {
          "internalType": "uint256",
          "name": "",
          "type": "uint256"
        },
        {
          "internalType": "uint256",
          "name": "",
          "type": "uint256"
        }
      ],
      "stateMutability": "view",
      "type": "function"
    },
    {
      "inputs": [],
      "name": "getElectionCount",
      "outputs": [
        {
          "internalType": "uint256",
          "name": "",
          "type": "uint256"
        }
      ],
      "stateMutability": "view",
      "type": "function"
    },
    {
      "inputs": [
        {
          "internalType": "bytes32",
          "name": "_hashedId",
          "type": "bytes32"
        }
      ],
      "name": "register",
      "outputs": [],
      "stateMutability": "nonpayable",
      "type": "function"
    },
    {
      "inputs": [
        {
          "internalType": "address",
          "name": "",
          "type": "address"
        }
      ],
      "name": "registeredVoterId",
      "outputs": [
        {
          "internalType": "bytes32",
          "name": "",
          "type": "bytes32"
        }
      ],
      "stateMutability": "view",
      "type": "function"
    },
    {
      "inputs": [
        {
          "internalType": "bytes32",
          "name": "",
          "type": "bytes32"
        }
      ],
      "name": "validVoterId",
      "outputs": [
        {
          "internalType": "bool",
          "name": "",
          "type": "bool"
        }
      ],
      "stateMutability": "view",
      "type": "function"
    },
    {
      "inputs": [
        {
          "internalType": "uint256",
          "name": "_electionId",
          "type": "uint256"
        },
        {
          "internalType": "uint256",
          "name": "_candidateId",
          "type": "uint256"
        }
      ],
      "name": "vote",
      "outputs": [],
      "stateMutability": "nonpayable",
      "type": "function"
    },
    {
      "inputs": [
        {
          "internalType": "bytes32",
          "name": "",
          "type": "bytes32"
        }
      ],
      "name": "voterIdUsed",
      "outputs": [
        {
          "internalType": "bool",
          "name": "",
          "type": "bool"
        }
      ],
      "stateMutability": "view",
      "type": "function"
    },
    {
      "inputs": [
        {
          "internalType": "bytes32[]",
          "name": "_hashedIds",
          "type": "bytes32[]"
        }
      ],
      "name": "whitelistMultipleVoterIds",
      "outputs": [],
      "stateMutability": "nonpayable",
      "type": "function"
    },
    {
      "inputs": [
        {
          "internalType": "bytes32",
          "name": "_hashedId",
          "type": "bytes32"
        }
      ],
      "name": "whitelistVoterId",
      "outputs": [],
      "stateMutability": "nonpayable",
      "type": "function"
    }
  ],
  "bytecode": "0x608060405234801561001057600080fd5b50336000806101000a81548173ffffffffffffffffffffffffffffffffffffffff021916908373ffffffffffffffffffffffffffffffffffffffff160217905550611c11806100606000396000f3fe608060405234801561001057600080fd5b50600436106100f55760003560e01c80636126a1cf11610097578063b384abef11610066578063b384abef146102ad578063e1fa8e84146102c9578063f49a7a17146102e5578063f851a44014610301576100f5565b80636126a1cf146102115780638ed4f40614610241578063997d28301461025d5780639d7107771461027b576100f5565b806326f6a2aa116100d357806326f6a2aa1461015057806346b068fa146101805780634bd46448146101b05780634cc33878146101e1576100f5565b80630af82271146100fa5780631750a3d014610116578063213785a014610132575b600080fd5b610114600480360381019061010f9190610e01565b61031f565b005b610130600480360381019061012b9190610faa565b6103dc565b005b61013a610536565b6040516101479190611015565b60405180910390f35b61016a60048036038101906101659190611030565b610540565b6040516101779190611015565b60405180910390f35b61019a60048036038101906101959190610e01565b610560565b6040516101a79190611078565b60405180910390f35b6101ca60048036038101906101c59190611093565b610580565b6040516101d8929190611152565b60405180910390f35b6101fb60048036038101906101f69190610e01565b61064f565b6040516102089190611078565b60405180910390f35b61022b600480360381019061022691906111e0565b61066f565b604051610238919061121c565b60405180910390f35b61025b600480360381019061025691906112ff565b610687565b005b61026561077e565b6040516102729190611015565b60405180910390f35b61029560048036038101906102909190611030565b610784565b6040516102a493929190611348565b60405180910390f35b6102c760048036038101906102c29190611093565b610848565b005b6102e360048036038101906102de9190610e01565b610a8e565b005b6102ff60048036038101906102fa9190611386565b610c46565b005b610309610d93565b6040516103169190611404565b60405180910390f35b60008054906101000a900473ffffffffffffffffffffffffffffffffffffffff1673ffffffffffffffffffffffffffffffffffffffff163373ffffffffffffffffffffffffffffffffffffffff16146103ad576040517f08c379a00000000000000000000000000000000000000000000000000000000081526004016103a49061146b565b60405180910390fd5b60016003600083815260200190815260200160002060006101000a81548160ff02191690831515021790555050565b60008054906101000a900473ffffffffffffffffffffffffffffffffffffffff1673ffffffffffffffffffffffffffffffffffffffff163373ffffffffffffffffffffffffffffffffffffffff161461046a576040517f08c379a00000000000000000000000000000000000000000000000000000000081526004016104619061146b565b60405180910390fd5b60015482106104ae576040517f08c379a00000000000000000000000000000000000000000000000000000000081526004016104a5906114d7565b60405180910390fd5b6000600260008481526020019081526020016000209050604051806040016040528083815260200160008152508160040160008360030154815260200190815260200160002060008201518160000190816105099190611703565b506020820151816001015590505080600301600081548092919061052c90611804565b9190505550505050565b6000600154905090565b600060026000838152602001908152602001600020600301549050919050565b60056020528060005260406000206000915054906101000a900460ff1681565b606060008060026000868152602001908152602001600020600401600085815260200190815260200160002090508060000181600101548180546105c390611526565b80601f01602080910402602001604051908101604052809291908181526020018280546105ef90611526565b801561063c5780601f106106115761010080835404028352916020019161063c565b820191906000526020600020905b81548152906001019060200180831161061f57829003601f168201915b5050505050915092509250509250929050565b60036020528060005260406000206000915054906101000a900460ff1681565b60046020528060005260406000206000915090505481565b60008054906101000a900473ffffffffffffffffffffffffffffffffffffffff1673ffffffffffffffffffffffffffffffffffffffff163373ffffffffffffffffffffffffffffffffffffffff1614610715576040517f08c379a000000000000000000000000000000000000000000000000000000000815260040161070c9061146b565b60405180910390fd5b60005b815181101561077a5760016003600084848151811061073a5761073961184c565b5b6020026020010151815260200190815260200160002060006101000a81548160ff021916908315150217905550808061077290611804565b915050610718565b5050565b60015481565b6060600080600060026000868152602001908152602001600020905080600001816001015482600201548280546107ba90611526565b80601f01602080910402602001604051908101604052809291908181526020018280546107e690611526565b80156108335780601f1061080857610100808354040283529160200191610833565b820191906000526020600020905b81548152906001019060200180831161081657829003601f168201915b50505050509250935093509350509193909250565b600154821061088c576040517f08c379a0000000000000000000000000000000000000000000000000000000008152600401610883906114d7565b60405180910390fd5b6000600260008481526020019081526020016000209050806001015442101580156108bb575080600201544211155b6108fa576040517f08c379a00000000000000000000000000000000000000000000000000000000081526004016108f1906118c7565b60405180910390fd5b6000600460003373ffffffffffffffffffffffffffffffffffffffff1673ffffffffffffffffffffffffffffffffffffffff1681526020019081526020016000205490506000801b8103610983576040517f08c379a000000000000000000000000000000000000000000000000000000000815260040161097a90611933565b60405180910390fd5b81600501600082815260200190815260200160002060009054906101000a900460ff16156109e6576040517f08c379a00000000000000000000000000000000000000000000000000000000081526004016109dd9061199f565b60405180910390fd5b81600301548310610a2c576040517f08c379a0000000000000000000000000000000000000000000000000000000008152600401610a2390611a0b565b60405180910390fd5b8160040160008481526020019081526020016000206001016000815480929190610a5590611804565b9190505550600182600501600083815260200190815260200160002060006101000a81548160ff02191690831515021790555050505050565b6003600082815260200190815260200160002060009054906101000a900460ff16610aee576040517f08c379a0000000000000000000000000000000000000000000000000000000008152600401610ae590611a77565b60405180910390fd5b6000801b600460003373ffffffffffffffffffffffffffffffffffffffff1673ffffffffffffffffffffffffffffffffffffffff1681526020019081526020016000205414610b72576040517f08c379a0000000000000000000000000000000000000000000000000000000008152600401610b6990611ae3565b60405180910390fd5b6005600082815260200190815260200160002060009054906101000a900460ff1615610bd3576040517f08c379a0000000000000000000000000000000000000000000000000000000008152600401610bca90611b4f565b60405180910390fd5b80600460003373ffffffffffffffffffffffffffffffffffffffff1673ffffffffffffffffffffffffffffffffffffffff1681526020019081526020016000208190555060016005600083815260200190815260200160002060006101000a81548160ff02191690831515021790555050565b60008054906101000a900473ffffffffffffffffffffffffffffffffffffffff1673ffffffffffffffffffffffffffffffffffffffff163373ffffffffffffffffffffffffffffffffffffffff1614610cd4576040517f08c379a0000000000000000000000000000000000000000000000000000000008152600401610ccb9061146b565b60405180910390fd5b808210610d16576040517f08c379a0000000000000000000000000000000000000000000000000000000008152600401610d0d90611bbb565b60405180910390fd5b826002600060015481526020019081526020016000206000019081610d3b9190611703565b508160026000600154815260200190815260200160002060010181905550806002600060015481526020019081526020016000206002018190555060016000815480929190610d8990611804565b9190505550505050565b60008054906101000a900473ffffffffffffffffffffffffffffffffffffffff1681565b6000604051905090565b600080fd5b600080fd5b6000819050919050565b610dde81610dcb565b8114610de957600080fd5b50565b600081359050610dfb81610dd5565b92915050565b600060208284031215610e1757610e16610dc1565b5b6000610e2584828501610dec565b91505092915050565b6000819050919050565b610e4181610e2e565b8114610e4c57600080fd5b50565b600081359050610e5e81610e38565b92915050565b600080fd5b600080fd5b6000601f19601f8301169050919050565b7f4e487b7100000000000000000000000000000000000000000000000000000000600052604160045260246000fd5b610eb782610e6e565b810181811067ffffffffffffffff82111715610ed657610ed5610e7f565b5b80604052505050565b6000610ee9610db7565b9050610ef58282610eae565b919050565b600067ffffffffffffffff821115610f1557610f14610e7f565b5b610f1e82610e6e565b9050602081019050919050565b82818337600083830152505050565b6000610f4d610f4884610efa565b610edf565b905082815260208101848484011115610f6957610f68610e69565b5b610f74848285610f2b565b509392505050565b600082601f830112610f9157610f90610e64565b5b8135610fa1848260208601610f3a565b91505092915050565b60008060408385031215610fc157610fc0610dc1565b5b6000610fcf85828601610e4f565b925050602083013567ffffffffffffffff811115610ff057610fef610dc6565b5b610ffc85828601610f7c565b9150509250929050565b61100f81610e2e565b82525050565b600060208201905061102a6000830184611006565b92915050565b60006020828403121561104657611045610dc1565b5b600061105484828501610e4f565b91505092915050565b60008115159050919050565b6110728161105d565b82525050565b600060208201905061108d6000830184611069565b92915050565b600080604083850312156110aa576110a9610dc1565b5b60006110b885828601610e4f565b92505060206110c985828601610e4f565b9150509250929050565b600081519050919050565b600082825260208201905092915050565b60005b8381101561110d5780820151818401526020810190506110f2565b60008484015250505050565b6000611124826110d3565b61112e81856110de565b935061113e8185602086016110ef565b61114781610e6e565b840191505092915050565b6000604082019050818103600083015261116c8185611119565b905061117b6020830184611006565b9392505050565b600073ffffffffffffffffffffffffffffffffffffffff82169050919050565b60006111ad82611182565b9050919050565b6111bd816111a2565b81146111c857600080fd5b50565b6000813590506111da816111b4565b92915050565b6000602082840312156111f6576111f5610dc1565b5b6000611204848285016111cb565b91505092915050565b61121681610dcb565b82525050565b6000602082019050611231600083018461120d565b92915050565b600067ffffffffffffffff82111561125257611251610e7f565b5b602082029050602081019050919050565b600080fd5b600061127b61127684611237565b610edf565b9050808382526020820190506020840283018581111561129e5761129d611263565b5b835b818110156112c757806112b38882610dec565b8452602084019350506020810190506112a0565b5050509392505050565b600082601f8301126112e6576112e5610e64565b5b81356112f6848260208601611268565b91505092915050565b60006020828403121561131557611314610dc1565b5b600082013567ffffffffffffffff81111561133357611332610dc6565b5b61133f848285016112d1565b91505092915050565b600060608201905081810360008301526113628186611119565b90506113716020830185611006565b61137e6040830184611006565b949350505050565b60008060006060848603121561139f5761139e610dc1565b5b600084013567ffffffffffffffff8111156113bd576113bc610dc6565b5b6113c986828701610f7c565b93505060206113da86828701610e4f565b92505060406113eb86828701610e4f565b9150509250925092565b6113fe816111a2565b82525050565b600060208201905061141960008301846113f5565b92915050565b7f4f6e6c792061646d696e20616c6c6f7765640000000000000000000000000000600082015250565b60006114556012836110de565b91506114608261141f565b602082019050919050565b6000602082019050818103600083015261148481611448565b9050919050565b7f456c656374696f6e206e6f7420666f756e640000000000000000000000000000600082015250565b60006114c16012836110de565b91506114cc8261148b565b602082019050919050565b600060208201905081810360008301526114f0816114b4565b9050919050565b7f4e487b7100000000000000000000000000000000000000000000000000000000600052602260045260246000fd5b6000600282049050600182168061153e57607f821691505b602082108103611551576115506114f7565b5b50919050565b60008190508160005260206000209050919050565b60006020601f8301049050919050565b600082821b905092915050565b6000600883026115b97fffffffffffffffffffffffffffffffffffffffffffffffffffffffffffffffff8261157c565b6115c3868361157c565b95508019841693508086168417925050509392505050565b6000819050919050565b60006116006115fb6115f684610e2e565b6115db565b610e2e565b9050919050565b6000819050919050565b61161a836115e5565b61162e61162682611607565b848454611589565b825550505050565b600090565b611643611636565b61164e818484611611565b505050565b5b818110156116725761166760008261163b565b600181019050611654565b5050565b601f8211156116b75761168881611557565b6116918461156c565b810160208510156116a0578190505b6116b46116ac8561156c565b830182611653565b50505b505050565b600082821c905092915050565b60006116da600019846008026116bc565b1980831691505092915050565b60006116f383836116c9565b9150826002028217905092915050565b61170c826110d3565b67ffffffffffffffff81111561172557611724610e7f565b5b61172f8254611526565b61173a828285611676565b600060209050601f83116001811461176d576000841561175b578287015190505b61176585826116e7565b8655506117cd565b601f19841661177b86611557565b60005b828110156117a35784890151825560018201915060208501945060208101905061177e565b868310156117c057848901516117bc601f8916826116c9565b8355505b6001600288020188555050505b505050505050565b7f4e487b7100000000000000000000000000000000000000000000000000000000600052601160045260246000fd5b600061180f82610e2e565b91507fffffffffffffffffffffffffffffffffffffffffffffffffffffffffffffffff8203611841576118406117d5565b5b600182019050919050565b7f4e487b7100000000000000000000000000000000000000000000000000000000600052603260045260246000fd5b7f456c656374696f6e206e6f742061637469766500000000000000000000000000600082015250565b60006118b16013836110de565b91506118bc8261187b565b602082019050919050565b600060208201905081810360008301526118e0816118a4565b9050919050565b7f4e6f742072656769737465726564000000000000000000000000000000000000600082015250565b600061191d600e836110de565b9150611928826118e7565b602082019050919050565b6000602082019050818103600083015261194c81611910565b9050919050565b7f416c726561647920766f74656400000000000000000000000000000000000000600082015250565b6000611989600d836110de565b915061199482611953565b602082019050919050565b600060208201905081810360008301526119b88161197c565b9050919050565b7f496e76616c69642063616e646964617465000000000000000000000000000000600082015250565b60006119f56011836110de565b9150611a00826119bf565b602082019050919050565b60006020820190508181036000830152611a24816119e8565b9050919050565b7f566f746572204944206e6f742076616c69640000000000000000000000000000600082015250565b6000611a616012836110de565b9150611a6c82611a2b565b602082019050919050565b60006020820190508181036000830152611a9081611a54565b9050919050565b7f57616c6c657420616c7265616479207265676973746572656400000000000000600082015250565b6000611acd6019836110de565b9150611ad882611a97565b602082019050919050565b60006020820190508181036000830152611afc81611ac0565b9050919050565b7f566f74657220494420616c726561647920757365640000000000000000000000600082015250565b6000611b396015836110de565b9150611b4482611b03565b602082019050919050565b60006020820190508181036000830152611b6881611b2c565b9050919050565b7f496e76616c69642074696d652072616e67650000000000000000000000000000600082015250565b6000611ba56012836110de565b9150611bb082611b6f565b602082019050919050565b60006020820190508181036000830152611bd481611b98565b905091905056fea2646970667358221220a8dfd83508e88cc486eb0132adfce80a54f60da73d0557ef7bc9e30a5b5fee9c64736f6c63430008140033",
  "linkReferences": {},
  "deployedLinkReferences": {}
}