{
  "_format": "hh-sol-artifact-1",
  "contractName": "Voting",
  "sourceName": "contracts/Voting.sol",
  "abi": [
    {
      "inputs": [],
      "stateMutability": "nonpayable",
      "type": "constructor"
    },
    {
      "inputs": [
        {
          "internalType": "uint256",
          "name": "electionId",
          "type": "uint256"
        },
        {
          "internalType": "string",
          "name": "candidateName",
          "type": "string"
        }
      ],
      "name": "addCandidate",
      "outputs": [],
      "stateMutability": "nonpayable",
      "type": "function"
    },
    {
      "inputs": [],
      "name": "admin",
      "outputs": [
        {
          "internalType": "address",
          "name": "",
          "type": "address"
        }
      ],
      "stateMutability": "view",
      "type": "function"
    },
    {
      "inputs": [
        {
          "internalType": "string",
          "name": "_name",
          "type": "string"
        },
        {
          "internalType": "uint256",
          "name": "_startTime",
          "type": "uint256"
        },
        {
          "internalType": "uint256",
          "name": "_endTime",
          "type": "uint256"
        }
      ],
      "name": "createElection",
      "outputs": [],
      "stateMutability": "nonpayable",
      "type": "function"
    },
    {
      "inputs": [
        {
          "internalType": "uint256",
          "name": "",
          "type": "uint256"
        }
      ],
      "name": "elections",
      "outputs": [
        {
          "internalType": "string",
          "name": "name",
          "type": "string"
        },
        {
          "internalType": "uint256",
          "name": "startTime",
          "type": "uint256"
        },
        {
          "internalType": "uint256",
          "name": "endTime",
          "type": "uint256"
        }
      ],
      "stateMutability": "view",
      "type": "function"
    },
    {
      "inputs": [
        {
          "internalType": "uint256",
          "name": "electionId",
          "type": "uint256"
        },
        {
          "internalType": "uint256",
          "name": "candidateIndex",
          "type": "uint256"
        }
      ],
      "name": "getCandidate",
      "outputs": [
        {
          "internalType": "string",
          "name": "",
          "type": "string"
        }
      ],
      "stateMutability": "view",
      "type": "function"
    },
    {
      "inputs": [
        {
          "internalType": "uint256",
          "name": "electionId",
          "type": "uint256"
        }
      ],
      "name": "getCandidateCount",
      "outputs": [
        {
          "internalType": "uint256",
          "name": "",
          "type": "uint256"
        }
      ],
      "stateMutability": "view",
      "type": "function"
    },
    {
      "inputs": [
        {
          "internalType": "uint256",
          "name": "index",
          "type": "uint256"
        }
      ],
      "name": "getElection",
      "outputs": [
        {
          "internalType": "string",
          "name": "",
          "type": "string"
        },
        {
          "internalType": "uint256",
          "name": "",
          "type": "uint256"
        },
        {
          "internalType": "uint256",
          "name": "",
          "type": "uint256"
        }
      ],
      "stateMutability": "view",
      "type": "function"
    },
    {
      "inputs": [],
      "name": "getElectionCount",
      "outputs": [
        {
          "internalType": "uint256",
          "name": "",
          "type": "uint256"
        }
      ],
      "stateMutability": "view",
      "type": "function"
    }
  ],
  "bytecode": "0x608060405234801561001057600080fd5b50336000806101000a81548173ffffffffffffffffffffffffffffffffffffffff021916908373ffffffffffffffffffffffffffffffffffffffff160217905550610e0e806100606000396000f3fe608060405234801561001057600080fd5b50600436106100885760003560e01c80635e6fef011161005b5780635e6fef01146101275780639d71077714610159578063f49a7a171461018b578063f851a440146101a757610088565b80631750a3d01461008d578063213785a0146100a957806326f6a2aa146100c75780634bd46448146100f7575b600080fd5b6100a760048036038101906100a29190610985565b6101c5565b005b6100b16102f5565b6040516100be9190610ba7565b60405180910390f35b6100e160048036038101906100dc919061095c565b610302565b6040516100ee9190610ba7565b60405180910390f35b610111600480360381019061010c91906109d9565b61035a565b60405161011e9190610b07565b60405180910390f35b610141600480360381019061013c919061095c565b61047d565b60405161015093929190610b29565b60405180910390f35b610173600480360381019061016e919061095c565b61053f565b60405161018293929190610b29565b60405180910390f35b6101a560048036038101906101a091906108f5565b610638565b005b6101af6107b1565b6040516101bc9190610aec565b60405180910390f35b60008054906101000a900473ffffffffffffffffffffffffffffffffffffffff1673ffffffffffffffffffffffffffffffffffffffff163373ffffffffffffffffffffffffffffffffffffffff1614610253576040517f08c379a000000000000000000000000000000000000000000000000000000000815260040161024a90610b87565b60405180910390fd5b6001828154811061028d577f4e487b7100000000000000000000000000000000000000000000000000000000600052603260045260246000fd5b90600052602060002090600402016003016040518060200160405280838152509080600181540180825580915050600190039060005260206000200160009091909190915060008201518160000190805190602001906102ee9291906107d5565b5050505050565b6000600180549050905090565b60006001828154811061033e577f4e487b7100000000000000000000000000000000000000000000000000000000600052603260045260246000fd5b9060005260206000209060040201600301805490509050919050565b606060018381548110610396577f4e487b7100000000000000000000000000000000000000000000000000000000600052603260045260246000fd5b906000526020600020906004020160030182815481106103df577f4e487b7100000000000000000000000000000000000000000000000000000000600052603260045260246000fd5b9060005260206000200160000180546103f790610cf1565b80601f016020809104026020016040519081016040528092919081815260200182805461042390610cf1565b80156104705780601f1061044557610100808354040283529160200191610470565b820191906000526020600020905b81548152906001019060200180831161045357829003601f168201915b5050505050905092915050565b6001818154811061048d57600080fd5b90600052602060002090600402016000915090508060000180546104b090610cf1565b80601f01602080910402602001604051908101604052809291908181526020018280546104dc90610cf1565b80156105295780601f106104fe57610100808354040283529160200191610529565b820191906000526020600020905b81548152906001019060200180831161050c57829003601f168201915b5050505050908060010154908060020154905083565b6060600080600060018581548110610580577f4e487b7100000000000000000000000000000000000000000000000000000000600052603260045260246000fd5b9060005260206000209060040201905080600001816001015482600201548280546105aa90610cf1565b80601f01602080910402602001604051908101604052809291908181526020018280546105d690610cf1565b80156106235780601f106105f857610100808354040283529160200191610623565b820191906000526020600020905b81548152906001019060200180831161060657829003601f168201915b50505050509250935093509350509193909250565b60008054906101000a900473ffffffffffffffffffffffffffffffffffffffff1673ffffffffffffffffffffffffffffffffffffffff163373ffffffffffffffffffffffffffffffffffffffff16146106c6576040517f08c379a00000000000000000000000000000000000000000000000000000000081526004016106bd90610b87565b60405180910390fd5b818111610708576040517f08c379a00000000000000000000000000000000000000000000000000000000081526004016106ff90610b67565b60405180910390fd5b6001808160018154018082558091505003906000526020600020905050600060018080805490506107399190610c3f565b81548110610770577f4e487b7100000000000000000000000000000000000000000000000000000000600052603260045260246000fd5b90600052602060002090600402019050838160000190805190602001906107989291906107d5565b5082816001018190555081816002018190555050505050565b60008054906101000a900473ffffffffffffffffffffffffffffffffffffffff1681565b8280546107e190610cf1565b90600052602060002090601f016020900481019282610803576000855561084a565b82601f1061081c57805160ff191683800117855561084a565b8280016001018555821561084a579182015b8281111561084957825182559160200191906001019061082e565b5b509050610857919061085b565b5090565b5b8082111561087457600081600090555060010161085c565b5090565b600061088b61088684610bf3565b610bc2565b9050828152602081018484840111156108a357600080fd5b6108ae848285610caf565b509392505050565b600082601f8301126108c757600080fd5b81356108d7848260208601610878565b91505092915050565b6000813590506108ef81610dc1565b92915050565b60008060006060848603121561090a57600080fd5b600084013567ffffffffffffffff81111561092457600080fd5b610930868287016108b6565b9350506020610941868287016108e0565b9250506040610952868287016108e0565b9150509250925092565b60006020828403121561096e57600080fd5b600061097c848285016108e0565b91505092915050565b6000806040838503121561099857600080fd5b60006109a6858286016108e0565b925050602083013567ffffffffffffffff8111156109c357600080fd5b6109cf858286016108b6565b9150509250929050565b600080604083850312156109ec57600080fd5b60006109fa858286016108e0565b9250506020610a0b858286016108e0565b9150509250929050565b610a1e81610c73565b82525050565b6000610a2f82610c23565b610a398185610c2e565b9350610a49818560208601610cbe565b610a5281610db0565b840191505092915050565b6000610a6a600c83610c2e565b91507f496e76616c69642074696d6500000000000000000000000000000000000000006000830152602082019050919050565b6000610aaa601283610c2e565b91507f4f6e6c792061646d696e20616c6c6f77656400000000000000000000000000006000830152602082019050919050565b610ae681610ca5565b82525050565b6000602082019050610b016000830184610a15565b92915050565b60006020820190508181036000830152610b218184610a24565b905092915050565b60006060820190508181036000830152610b438186610a24565b9050610b526020830185610add565b610b5f6040830184610add565b949350505050565b60006020820190508181036000830152610b8081610a5d565b9050919050565b60006020820190508181036000830152610ba081610a9d565b9050919050565b6000602082019050610bbc6000830184610add565b92915050565b6000604051905081810181811067ffffffffffffffff82111715610be957610be8610d81565b5b8060405250919050565b600067ffffffffffffffff821115610c0e57610c0d610d81565b5b601f19601f8301169050602081019050919050565b600081519050919050565b600082825260208201905092915050565b6000610c4a82610ca5565b9150610c5583610ca5565b925082821015610c6857610c67610d23565b5b828203905092915050565b6000610c7e82610c85565b9050919050565b600073ffffffffffffffffffffffffffffffffffffffff82169050919050565b6000819050919050565b82818337600083830152505050565b60005b83811015610cdc578082015181840152602081019050610cc1565b83811115610ceb576000848401525b50505050565b60006002820490506001821680610d0957607f821691505b60208210811415610d1d57610d1c610d52565b5b50919050565b7f4e487b7100000000000000000000000000000000000000000000000000000000600052601160045260246000fd5b7f4e487b7100000000000000000000000000000000000000000000000000000000600052602260045260246000fd5b7f4e487b7100000000000000000000000000000000000000000000000000000000600052604160045260246000fd5b6000601f19601f8301169050919050565b610dca81610ca5565b8114610dd557600080fd5b5056fea264697066735822122033518c87b70664584d8994b88c4a7b07bec8cfbe9eae79d369742bd11389b31664736f6c63430008000033",
  "linkReferences": {},
  "deployedLinkReferences": {}
}