{
  "_format": "hh-sol-artifact-1",
  "contractName": "Voting",
  "sourceName": "contracts/Voting.sol",
  "abi": [
    {
      "inputs": [],
      "stateMutability": "nonpayable",
      "type": "constructor"
    },
    {
      "inputs": [
        {
          "internalType": "uint256",
          "name": "_electionId",
          "type": "uint256"
        },
        {
          "internalType": "string",
          "name": "_name",
          "type": "string"
        }
      ],
      "name": "addCandidate",
      "outputs": [],
      "stateMutability": "nonpayable",
      "type": "function"
    },
    {
      "inputs": [],
      "name": "admin",
      "outputs": [
        {
          "internalType": "address",
          "name": "",
          "type": "address"
        }
      ],
      "stateMutability": "view",
      "type": "function"
    },
    {
      "inputs": [
        {
          "internalType": "string",
          "name": "_name",
          "type": "string"
        },
        {
          "internalType": "uint256",
          "name": "_startTime",
          "type": "uint256"
        },
        {
          "internalType": "uint256",
          "name": "_endTime",
          "type": "uint256"
        }
      ],
      "name": "createElection",
      "outputs": [],
      "stateMutability": "nonpayable",
      "type": "function"
    },
    {
      "inputs": [],
      "name": "electionCount",
      "outputs": [
        {
          "internalType": "uint256",
          "name": "",
          "type": "uint256"
        }
      ],
      "stateMutability": "view",
      "type": "function"
    },
    {
      "inputs": [
        {
          "internalType": "uint256",
          "name": "_electionId",
          "type": "uint256"
        },
        {
          "internalType": "uint256",
          "name": "_candidateId",
          "type": "uint256"
        }
      ],
      "name": "getCandidate",
      "outputs": [
        {
          "internalType": "string",
          "name": "",
          "type": "string"
        },
        {
          "internalType": "uint256",
          "name": "",
          "type": "uint256"
        }
      ],
      "stateMutability": "view",
      "type": "function"
    },
    {
      "inputs": [
        {
          "internalType": "uint256",
          "name": "_electionId",
          "type": "uint256"
        }
      ],
      "name": "getCandidateCount",
      "outputs": [
        {
          "internalType": "uint256",
          "name": "",
          "type": "uint256"
        }
      ],
      "stateMutability": "view",
      "type": "function"
    },
    {
      "inputs": [
        {
          "internalType": "uint256",
          "name": "_electionId",
          "type": "uint256"
        }
      ],
      "name": "getElection",
      "outputs": [
        {
          "internalType": "string",
          "name": "",
          "type": "string"
        },
        {
          "internalType": "uint256",
          "name": "",
          "type": "uint256"
        },
        {
          "internalType": "uint256",
          "name": "",
          "type": "uint256"
        }
      ],
      "stateMutability": "view",
      "type": "function"
    },
    {
      "inputs": [],
      "name": "getElectionCount",
      "outputs": [
        {
          "internalType": "uint256",
          "name": "",
          "type": "uint256"
        }
      ],
      "stateMutability": "view",
      "type": "function"
    },
    {
      "inputs": [
        {
          "internalType": "uint256",
          "name": "_electionId",
          "type": "uint256"
        },
        {
          "internalType": "bytes32",
          "name": "_hashedPRN",
          "type": "bytes32"
        }
      ],
      "name": "hasPRNVoted",
      "outputs": [
        {
          "internalType": "bool",
          "name": "",
          "type": "bool"
        }
      ],
      "stateMutability": "view",
      "type": "function"
    },
    {
      "inputs": [
        {
          "internalType": "bytes32",
          "name": "",
          "type": "bytes32"
        }
      ],
      "name": "prnUsed",
      "outputs": [
        {
          "internalType": "bool",
          "name": "",
          "type": "bool"
        }
      ],
      "stateMutability": "view",
      "type": "function"
    },
    {
      "inputs": [
        {
          "internalType": "bytes32",
          "name": "_hashedPRN",
          "type": "bytes32"
        }
      ],
      "name": "register",
      "outputs": [],
      "stateMutability": "nonpayable",
      "type": "function"
    },
    {
      "inputs": [
        {
          "internalType": "address",
          "name": "",
          "type": "address"
        }
      ],
      "name": "registeredPRN",
      "outputs": [
        {
          "internalType": "bytes32",
          "name": "",
          "type": "bytes32"
        }
      ],
      "stateMutability": "view",
      "type": "function"
    },
    {
      "inputs": [
        {
          "internalType": "bytes32",
          "name": "",
          "type": "bytes32"
        }
      ],
      "name": "validPRN",
      "outputs": [
        {
          "internalType": "bool",
          "name": "",
          "type": "bool"
        }
      ],
      "stateMutability": "view",
      "type": "function"
    },
    {
      "inputs": [
        {
          "internalType": "uint256",
          "name": "_electionId",
          "type": "uint256"
        },
        {
          "internalType": "uint256",
          "name": "_candidateId",
          "type": "uint256"
        }
      ],
      "name": "vote",
      "outputs": [],
      "stateMutability": "nonpayable",
      "type": "function"
    },
    {
      "inputs": [
        {
          "internalType": "bytes32[]",
          "name": "_hashedPRNs",
          "type": "bytes32[]"
        }
      ],
      "name": "whitelistMultiplePRNs",
      "outputs": [],
      "stateMutability": "nonpayable",
      "type": "function"
    },
    {
      "inputs": [
        {
          "internalType": "bytes32",
          "name": "_hashedPRN",
          "type": "bytes32"
        }
      ],
      "name": "whitelistPRN",
      "outputs": [],
      "stateMutability": "nonpayable",
      "type": "function"
    }
  ],
  "bytecode": "0x608060405234801561001057600080fd5b50336000806101000a81548173ffffffffffffffffffffffffffffffffffffffff021916908373ffffffffffffffffffffffffffffffffffffffff160217905550611ccb806100606000396000f3fe608060405234801561001057600080fd5b50600436106101005760003560e01c8063997d283011610097578063e1fa8e8411610066578063e1fa8e84146102e8578063e20b0d9814610304578063f49a7a1714610320578063f851a4401461033c57610100565b8063997d28301461024c5780639d7107771461026a578063b384abef1461029c578063dc19ee83146102b857610100565b806326f6a2aa116100d357806326f6a2aa1461019f5780634bd46448146101cf5780636c89830f1461020057806388ffee7e1461021c57610100565b8063062b605e146101055780631750a3d0146101355780631e85b7a814610151578063213785a014610181575b600080fd5b61011f600480360381019061011a9190610e7b565b61035a565b60405161012c9190610ec3565b60405180910390f35b61014f600480360381019061014a919061105a565b61037a565b005b61016b600480360381019061016691906110b6565b6104d4565b6040516101789190610ec3565b60405180910390f35b610189610513565b6040516101969190611105565b60405180910390f35b6101b960048036038101906101b49190611120565b61051d565b6040516101c69190611105565b60405180910390f35b6101e960048036038101906101e4919061114d565b61053d565b6040516101f792919061120c565b60405180910390f35b61021a60048036038101906102159190611304565b61060c565b005b61023660048036038101906102319190610e7b565b610703565b6040516102439190610ec3565b60405180910390f35b610254610723565b6040516102619190611105565b60405180910390f35b610284600480360381019061027f9190611120565b610729565b6040516102939392919061134d565b60405180910390f35b6102b660048036038101906102b1919061114d565b6107ed565b005b6102d260048036038101906102cd91906113e9565b610a33565b6040516102df9190611425565b60405180910390f35b61030260048036038101906102fd9190610e7b565b610a4b565b005b61031e60048036038101906103199190610e7b565b610c03565b005b61033a60048036038101906103359190611440565b610cc0565b005b610344610e0d565b60405161035191906114be565b60405180910390f35b60036020528060005260406000206000915054906101000a900460ff1681565b60008054906101000a900473ffffffffffffffffffffffffffffffffffffffff1673ffffffffffffffffffffffffffffffffffffffff163373ffffffffffffffffffffffffffffffffffffffff1614610408576040517f08c379a00000000000000000000000000000000000000000000000000000000081526004016103ff90611525565b60405180910390fd5b600154821061044c576040517f08c379a000000000000000000000000000000000000000000000000000000000815260040161044390611591565b60405180910390fd5b6000600260008481526020019081526020016000209050604051806040016040528083815260200160008152508160040160008360030154815260200190815260200160002060008201518160000190816104a791906117bd565b50602082015181600101559050508060030160008154809291906104ca906118be565b9190505550505050565b600060026000848152602001908152602001600020600501600083815260200190815260200160002060009054906101000a900460ff16905092915050565b6000600154905090565b600060026000838152602001908152602001600020600301549050919050565b60606000806002600086815260200190815260200160002060040160008581526020019081526020016000209050806000018160010154818054610580906115e0565b80601f01602080910402602001604051908101604052809291908181526020018280546105ac906115e0565b80156105f95780601f106105ce576101008083540402835291602001916105f9565b820191906000526020600020905b8154815290600101906020018083116105dc57829003601f168201915b5050505050915092509250509250929050565b60008054906101000a900473ffffffffffffffffffffffffffffffffffffffff1673ffffffffffffffffffffffffffffffffffffffff163373ffffffffffffffffffffffffffffffffffffffff161461069a576040517f08c379a000000000000000000000000000000000000000000000000000000000815260040161069190611525565b60405180910390fd5b60005b81518110156106ff576001600360008484815181106106bf576106be611906565b5b6020026020010151815260200190815260200160002060006101000a81548160ff02191690831515021790555080806106f7906118be565b91505061069d565b5050565b60056020528060005260406000206000915054906101000a900460ff1681565b60015481565b60606000806000600260008681526020019081526020016000209050806000018160010154826002015482805461075f906115e0565b80601f016020809104026020016040519081016040528092919081815260200182805461078b906115e0565b80156107d85780601f106107ad576101008083540402835291602001916107d8565b820191906000526020600020905b8154815290600101906020018083116107bb57829003601f168201915b50505050509250935093509350509193909250565b6001548210610831576040517f08c379a000000000000000000000000000000000000000000000000000000000815260040161082890611591565b60405180910390fd5b600060026000848152602001908152602001600020905080600101544210158015610860575080600201544211155b61089f576040517f08c379a000000000000000000000000000000000000000000000000000000000815260040161089690611981565b60405180910390fd5b6000600460003373ffffffffffffffffffffffffffffffffffffffff1673ffffffffffffffffffffffffffffffffffffffff1681526020019081526020016000205490506000801b8103610928576040517f08c379a000000000000000000000000000000000000000000000000000000000815260040161091f906119ed565b60405180910390fd5b81600501600082815260200190815260200160002060009054906101000a900460ff161561098b576040517f08c379a000000000000000000000000000000000000000000000000000000000815260040161098290611a59565b60405180910390fd5b816003015483106109d1576040517f08c379a00000000000000000000000000000000000000000000000000000000081526004016109c890611ac5565b60405180910390fd5b81600401600084815260200190815260200160002060010160008154809291906109fa906118be565b9190505550600182600501600083815260200190815260200160002060006101000a81548160ff02191690831515021790555050505050565b60046020528060005260406000206000915090505481565b6003600082815260200190815260200160002060009054906101000a900460ff16610aab576040517f08c379a0000000000000000000000000000000000000000000000000000000008152600401610aa290611b31565b60405180910390fd5b6000801b600460003373ffffffffffffffffffffffffffffffffffffffff1673ffffffffffffffffffffffffffffffffffffffff1681526020019081526020016000205414610b2f576040517f08c379a0000000000000000000000000000000000000000000000000000000008152600401610b2690611b9d565b60405180910390fd5b6005600082815260200190815260200160002060009054906101000a900460ff1615610b90576040517f08c379a0000000000000000000000000000000000000000000000000000000008152600401610b8790611c09565b60405180910390fd5b80600460003373ffffffffffffffffffffffffffffffffffffffff1673ffffffffffffffffffffffffffffffffffffffff1681526020019081526020016000208190555060016005600083815260200190815260200160002060006101000a81548160ff02191690831515021790555050565b60008054906101000a900473ffffffffffffffffffffffffffffffffffffffff1673ffffffffffffffffffffffffffffffffffffffff163373ffffffffffffffffffffffffffffffffffffffff1614610c91576040517f08c379a0000000000000000000000000000000000000000000000000000000008152600401610c8890611525565b60405180910390fd5b60016003600083815260200190815260200160002060006101000a81548160ff02191690831515021790555050565b60008054906101000a900473ffffffffffffffffffffffffffffffffffffffff1673ffffffffffffffffffffffffffffffffffffffff163373ffffffffffffffffffffffffffffffffffffffff1614610d4e576040517f08c379a0000000000000000000000000000000000000000000000000000000008152600401610d4590611525565b60405180910390fd5b808210610d90576040517f08c379a0000000000000000000000000000000000000000000000000000000008152600401610d8790611c75565b60405180910390fd5b826002600060015481526020019081526020016000206000019081610db591906117bd565b508160026000600154815260200190815260200160002060010181905550806002600060015481526020019081526020016000206002018190555060016000815480929190610e03906118be565b9190505550505050565b60008054906101000a900473ffffffffffffffffffffffffffffffffffffffff1681565b6000604051905090565b600080fd5b600080fd5b6000819050919050565b610e5881610e45565b8114610e6357600080fd5b50565b600081359050610e7581610e4f565b92915050565b600060208284031215610e9157610e90610e3b565b5b6000610e9f84828501610e66565b91505092915050565b60008115159050919050565b610ebd81610ea8565b82525050565b6000602082019050610ed86000830184610eb4565b92915050565b6000819050919050565b610ef181610ede565b8114610efc57600080fd5b50565b600081359050610f0e81610ee8565b92915050565b600080fd5b600080fd5b6000601f19601f8301169050919050565b7f4e487b7100000000000000000000000000000000000000000000000000000000600052604160045260246000fd5b610f6782610f1e565b810181811067ffffffffffffffff82111715610f8657610f85610f2f565b5b80604052505050565b6000610f99610e31565b9050610fa58282610f5e565b919050565b600067ffffffffffffffff821115610fc557610fc4610f2f565b5b610fce82610f1e565b9050602081019050919050565b82818337600083830152505050565b6000610ffd610ff884610faa565b610f8f565b90508281526020810184848401111561101957611018610f19565b5b611024848285610fdb565b509392505050565b600082601f83011261104157611040610f14565b5b8135611051848260208601610fea565b91505092915050565b6000806040838503121561107157611070610e3b565b5b600061107f85828601610eff565b925050602083013567ffffffffffffffff8111156110a05761109f610e40565b5b6110ac8582860161102c565b9150509250929050565b600080604083850312156110cd576110cc610e3b565b5b60006110db85828601610eff565b92505060206110ec85828601610e66565b9150509250929050565b6110ff81610ede565b82525050565b600060208201905061111a60008301846110f6565b92915050565b60006020828403121561113657611135610e3b565b5b600061114484828501610eff565b91505092915050565b6000806040838503121561116457611163610e3b565b5b600061117285828601610eff565b925050602061118385828601610eff565b9150509250929050565b600081519050919050565b600082825260208201905092915050565b60005b838110156111c75780820151818401526020810190506111ac565b60008484015250505050565b60006111de8261118d565b6111e88185611198565b93506111f88185602086016111a9565b61120181610f1e565b840191505092915050565b6000604082019050818103600083015261122681856111d3565b905061123560208301846110f6565b9392505050565b600067ffffffffffffffff82111561125757611256610f2f565b5b602082029050602081019050919050565b600080fd5b600061128061127b8461123c565b610f8f565b905080838252602082019050602084028301858111156112a3576112a2611268565b5b835b818110156112cc57806112b88882610e66565b8452602084019350506020810190506112a5565b5050509392505050565b600082601f8301126112eb576112ea610f14565b5b81356112fb84826020860161126d565b91505092915050565b60006020828403121561131a57611319610e3b565b5b600082013567ffffffffffffffff81111561133857611337610e40565b5b611344848285016112d6565b91505092915050565b6000606082019050818103600083015261136781866111d3565b905061137660208301856110f6565b61138360408301846110f6565b949350505050565b600073ffffffffffffffffffffffffffffffffffffffff82169050919050565b60006113b68261138b565b9050919050565b6113c6816113ab565b81146113d157600080fd5b50565b6000813590506113e3816113bd565b92915050565b6000602082840312156113ff576113fe610e3b565b5b600061140d848285016113d4565b91505092915050565b61141f81610e45565b82525050565b600060208201905061143a6000830184611416565b92915050565b60008060006060848603121561145957611458610e3b565b5b600084013567ffffffffffffffff81111561147757611476610e40565b5b6114838682870161102c565b935050602061149486828701610eff565b92505060406114a586828701610eff565b9150509250925092565b6114b8816113ab565b82525050565b60006020820190506114d360008301846114af565b92915050565b7f4f6e6c792061646d696e20616c6c6f7765640000000000000000000000000000600082015250565b600061150f601283611198565b915061151a826114d9565b602082019050919050565b6000602082019050818103600083015261153e81611502565b9050919050565b7f456c656374696f6e206e6f7420666f756e640000000000000000000000000000600082015250565b600061157b601283611198565b915061158682611545565b602082019050919050565b600060208201905081810360008301526115aa8161156e565b9050919050565b7f4e487b7100000000000000000000000000000000000000000000000000000000600052602260045260246000fd5b600060028204905060018216806115f857607f821691505b60208210810361160b5761160a6115b1565b5b50919050565b60008190508160005260206000209050919050565b60006020601f8301049050919050565b600082821b905092915050565b6000600883026116737fffffffffffffffffffffffffffffffffffffffffffffffffffffffffffffffff82611636565b61167d8683611636565b95508019841693508086168417925050509392505050565b6000819050919050565b60006116ba6116b56116b084610ede565b611695565b610ede565b9050919050565b6000819050919050565b6116d48361169f565b6116e86116e0826116c1565b848454611643565b825550505050565b600090565b6116fd6116f0565b6117088184846116cb565b505050565b5b8181101561172c576117216000826116f5565b60018101905061170e565b5050565b601f8211156117715761174281611611565b61174b84611626565b8101602085101561175a578190505b61176e61176685611626565b83018261170d565b50505b505050565b600082821c905092915050565b600061179460001984600802611776565b1980831691505092915050565b60006117ad8383611783565b9150826002028217905092915050565b6117c68261118d565b67ffffffffffffffff8111156117df576117de610f2f565b5b6117e982546115e0565b6117f4828285611730565b600060209050601f8311600181146118275760008415611815578287015190505b61181f85826117a1565b865550611887565b601f19841661183586611611565b60005b8281101561185d57848901518255600182019150602085019450602081019050611838565b8683101561187a5784890151611876601f891682611783565b8355505b6001600288020188555050505b505050505050565b7f4e487b7100000000000000000000000000000000000000000000000000000000600052601160045260246000fd5b60006118c982610ede565b91507fffffffffffffffffffffffffffffffffffffffffffffffffffffffffffffffff82036118fb576118fa61188f565b5b600182019050919050565b7f4e487b7100000000000000000000000000000000000000000000000000000000600052603260045260246000fd5b7f456c656374696f6e206e6f742061637469766500000000000000000000000000600082015250565b600061196b601383611198565b915061197682611935565b602082019050919050565b6000602082019050818103600083015261199a8161195e565b9050919050565b7f4e6f742072656769737465726564000000000000000000000000000000000000600082015250565b60006119d7600e83611198565b91506119e2826119a1565b602082019050919050565b60006020820190508181036000830152611a06816119ca565b9050919050565b7f416c726561647920766f74656400000000000000000000000000000000000000600082015250565b6000611a43600d83611198565b9150611a4e82611a0d565b602082019050919050565b60006020820190508181036000830152611a7281611a36565b9050919050565b7f496e76616c69642063616e646964617465000000000000000000000000000000600082015250565b6000611aaf601183611198565b9150611aba82611a79565b602082019050919050565b60006020820190508181036000830152611ade81611aa2565b9050919050565b7f50524e206e6f742076616c696400000000000000000000000000000000000000600082015250565b6000611b1b600d83611198565b9150611b2682611ae5565b602082019050919050565b60006020820190508181036000830152611b4a81611b0e565b9050919050565b7f57616c6c657420616c7265616479207265676973746572656400000000000000600082015250565b6000611b87601983611198565b9150611b9282611b51565b602082019050919050565b60006020820190508181036000830152611bb681611b7a565b9050919050565b7f50524e20616c7265616479207573656400000000000000000000000000000000600082015250565b6000611bf3601083611198565b9150611bfe82611bbd565b602082019050919050565b60006020820190508181036000830152611c2281611be6565b9050919050565b7f496e76616c69642074696d652072616e67650000000000000000000000000000600082015250565b6000611c5f601283611198565b9150611c6a82611c29565b602082019050919050565b60006020820190508181036000830152611c8e81611c52565b905091905056fea2646970667358221220418c5c7e68e82d915cef4ddee484cd7eeb293b12eac44532fe7f02859f6d54b764736f6c63430008140033",
  "linkReferences": {},
  "deployedLinkReferences": {}
}