{
  "_format": "hh-sol-artifact-1",
  "contractName": "Voting",
  "sourceName": "contracts/Voting.sol",
  "abi": [
    {
      "inputs": [],
      "stateMutability": "nonpayable",
      "type": "constructor"
    },
    {
      "inputs": [
        {
          "internalType": "uint256",
          "name": "_electionId",
          "type": "uint256"
        },
        {
          "internalType": "string",
          "name": "_name",
          "type": "string"
        }
      ],
      "name": "addCandidate",
      "outputs": [],
      "stateMutability": "nonpayable",
      "type": "function"
    },
    {
      "inputs": [],
      "name": "admin",
      "outputs": [
        {
          "internalType": "address",
          "name": "",
          "type": "address"
        }
      ],
      "stateMutability": "view",
      "type": "function"
    },
    {
      "inputs": [
        {
          "internalType": "string",
          "name": "_name",
          "type": "string"
        },
        {
          "internalType": "uint256",
          "name": "_startTime",
          "type": "uint256"
        },
        {
          "internalType": "uint256",
          "name": "_endTime",
          "type": "uint256"
        }
      ],
      "name": "createElection",
      "outputs": [],
      "stateMutability": "nonpayable",
      "type": "function"
    },
    {
      "inputs": [],
      "name": "electionCount",
      "outputs": [
        {
          "internalType": "uint256",
          "name": "",
          "type": "uint256"
        }
      ],
      "stateMutability": "view",
      "type": "function"
    },
    {
      "inputs": [
        {
          "internalType": "uint256",
          "name": "id",
          "type": "uint256"
        },
        {
          "internalType": "uint256",
          "name": "cid",
          "type": "uint256"
        }
      ],
      "name": "getCandidate",
      "outputs": [
        {
          "internalType": "string",
          "name": "",
          "type": "string"
        },
        {
          "internalType": "uint256",
          "name": "",
          "type": "uint256"
        }
      ],
      "stateMutability": "view",
      "type": "function"
    },
    {
      "inputs": [
        {
          "internalType": "uint256",
          "name": "id",
          "type": "uint256"
        }
      ],
      "name": "getCandidateCount",
      "outputs": [
        {
          "internalType": "uint256",
          "name": "",
          "type": "uint256"
        }
      ],
      "stateMutability": "view",
      "type": "function"
    },
    {
      "inputs": [
        {
          "internalType": "uint256",
          "name": "id",
          "type": "uint256"
        }
      ],
      "name": "getElection",
      "outputs": [
        {
          "internalType": "string",
          "name": "",
          "type": "string"
        },
        {
          "internalType": "uint256",
          "name": "",
          "type": "uint256"
        },
        {
          "internalType": "uint256",
          "name": "",
          "type": "uint256"
        }
      ],
      "stateMutability": "view",
      "type": "function"
    },
    {
      "inputs": [],
      "name": "getElectionCount",
      "outputs": [
        {
          "internalType": "uint256",
          "name": "",
          "type": "uint256"
        }
      ],
      "stateMutability": "view",
      "type": "function"
    },
    {
      "inputs": [
        {
          "internalType": "uint256",
          "name": "_electionId",
          "type": "uint256"
        },
        {
          "internalType": "address",
          "name": "user",
          "type": "address"
        }
      ],
      "name": "hasAlreadyVoted",
      "outputs": [
        {
          "internalType": "bool",
          "name": "",
          "type": "bool"
        }
      ],
      "stateMutability": "view",
      "type": "function"
    },
    {
      "inputs": [
        {
          "internalType": "uint256",
          "name": "id",
          "type": "uint256"
        },
        {
          "internalType": "address",
          "name": "user",
          "type": "address"
        }
      ],
      "name": "isRegistered",
      "outputs": [
        {
          "internalType": "bool",
          "name": "",
          "type": "bool"
        }
      ],
      "stateMutability": "view",
      "type": "function"
    },
    {
      "inputs": [
        {
          "internalType": "uint256",
          "name": "id",
          "type": "uint256"
        },
        {
          "internalType": "bytes32",
          "name": "h",
          "type": "bytes32"
        }
      ],
      "name": "isWhitelisted",
      "outputs": [
        {
          "internalType": "bool",
          "name": "",
          "type": "bool"
        }
      ],
      "stateMutability": "view",
      "type": "function"
    },
    {
      "inputs": [
        {
          "internalType": "uint256",
          "name": "_electionId",
          "type": "uint256"
        },
        {
          "internalType": "bytes32",
          "name": "_hashedId",
          "type": "bytes32"
        }
      ],
      "name": "register",
      "outputs": [],
      "stateMutability": "nonpayable",
      "type": "function"
    },
    {
      "inputs": [
        {
          "internalType": "uint256",
          "name": "",
          "type": "uint256"
        },
        {
          "internalType": "address",
          "name": "",
          "type": "address"
        }
      ],
      "name": "registeredVoterId",
      "outputs": [
        {
          "internalType": "bytes32",
          "name": "",
          "type": "bytes32"
        }
      ],
      "stateMutability": "view",
      "type": "function"
    },
    {
      "inputs": [
        {
          "internalType": "uint256",
          "name": "",
          "type": "uint256"
        },
        {
          "internalType": "bytes32",
          "name": "",
          "type": "bytes32"
        }
      ],
      "name": "validVoterId",
      "outputs": [
        {
          "internalType": "bool",
          "name": "",
          "type": "bool"
        }
      ],
      "stateMutability": "view",
      "type": "function"
    },
    {
      "inputs": [
        {
          "internalType": "uint256",
          "name": "_electionId",
          "type": "uint256"
        },
        {
          "internalType": "uint256",
          "name": "_candidateId",
          "type": "uint256"
        }
      ],
      "name": "vote",
      "outputs": [],
      "stateMutability": "nonpayable",
      "type": "function"
    },
    {
      "inputs": [
        {
          "internalType": "uint256",
          "name": "_electionId",
          "type": "uint256"
        },
        {
          "internalType": "bytes32[]",
          "name": "_ids",
          "type": "bytes32[]"
        }
      ],
      "name": "whitelistMultipleVoterIds",
      "outputs": [],
      "stateMutability": "nonpayable",
      "type": "function"
    }
  ],
  "bytecode": "0x608060405234801561001057600080fd5b50336000806101000a81548173ffffffffffffffffffffffffffffffffffffffff021916908373ffffffffffffffffffffffffffffffffffffffff160217905550611ad6806100606000396000f3fe608060405234801561001057600080fd5b50600436106101005760003560e01c80639d71077711610097578063f0ba55e011610066578063f0ba55e0146102e8578063f49a7a1714610318578063f851a44014610334578063fe0af8f71461035257610100565b80639d7107771461023a578063b384abef1461026c578063b81f6e1814610288578063c14bfd29146102b857610100565b80632965d809116100d35780632965d8091461019f5780634bd46448146101bb5780636909fd44146101ec578063997d28301461021c57610100565b80631750a3d0146101055780631a5455fc14610121578063213785a01461015157806326f6a2aa1461016f575b600080fd5b61011f600480360381019061011a9190610f17565b61036e565b005b61013b60048036038101906101369190610fd1565b610484565b604051610148919061102a565b60405180910390f35b6101596104a9565b6040516101669190611054565b60405180910390f35b6101896004803603810190610184919061106f565b6104b3565b6040516101969190611054565b60405180910390f35b6101b960048036038101906101b491906110c8565b6104d3565b005b6101d560048036038101906101d09190611108565b610632565b6040516101e39291906111c7565b60405180910390f35b610206600480360381019061020191906110c8565b610701565b6040516102139190611212565b60405180910390f35b61022461073d565b6040516102319190611054565b60405180910390f35b610254600480360381019061024f919061106f565b610743565b6040516102639392919061122d565b60405180910390f35b61028660048036038101906102819190611108565b610807565b005b6102a2600480360381019061029d9190610fd1565b6109d4565b6040516102af9190611212565b60405180910390f35b6102d260048036038101906102cd9190610fd1565b610a35565b6040516102df9190611212565b60405180910390f35b61030260048036038101906102fd91906110c8565b610ade565b60405161030f9190611212565b60405180910390f35b610332600480360381019061032d919061126b565b610b0d565b005b61033c610c5a565b60405161034991906112e9565b60405180910390f35b61036c600480360381019061036791906113cc565b610c7e565b005b60008054906101000a900473ffffffffffffffffffffffffffffffffffffffff1673ffffffffffffffffffffffffffffffffffffffff163373ffffffffffffffffffffffffffffffffffffffff16146103fc576040517f08c379a00000000000000000000000000000000000000000000000000000000081526004016103f390611474565b60405180910390fd5b60006002600084815260200190815260200160002090506040518060400160405280838152602001600081525081600401600083600301548152602001908152602001600020600082015181600001908161045791906116a0565b506020820151816001015590505080600301600081548092919061047a906117a1565b9190505550505050565b6004602052816000526040600020602052806000526040600020600091509150505481565b6000600154905090565b600060026000838152602001908152602001600020600301549050919050565b60036000838152602001908152602001600020600082815260200190815260200160002060009054906101000a900460ff16610544576040517f08c379a000000000000000000000000000000000000000000000000000000000815260040161053b90611835565b60405180910390fd5b6000801b6004600084815260200190815260200160002060003373ffffffffffffffffffffffffffffffffffffffff1673ffffffffffffffffffffffffffffffffffffffff16815260200190815260200160002054146105d9576040517f08c379a00000000000000000000000000000000000000000000000000000000081526004016105d0906118a1565b60405180910390fd5b806004600084815260200190815260200160002060003373ffffffffffffffffffffffffffffffffffffffff1673ffffffffffffffffffffffffffffffffffffffff168152602001908152602001600020819055505050565b60606000806002600086815260200190815260200160002060040160008581526020019081526020016000209050806000018160010154818054610675906114c3565b80601f01602080910402602001604051908101604052809291908181526020018280546106a1906114c3565b80156106ee5780601f106106c3576101008083540402835291602001916106ee565b820191906000526020600020905b8154815290600101906020018083116106d157829003601f168201915b5050505050915092509250509250929050565b600060036000848152602001908152602001600020600083815260200190815260200160002060009054906101000a900460ff16905092915050565b60015481565b606060008060006002600086815260200190815260200160002090508060000181600101548260020154828054610779906114c3565b80601f01602080910402602001604051908101604052809291908181526020018280546107a5906114c3565b80156107f25780601f106107c7576101008083540402835291602001916107f2565b820191906000526020600020905b8154815290600101906020018083116107d557829003601f168201915b50505050509250935093509350509193909250565b600060026000848152602001908152602001600020905080600101544210158015610836575080600201544211155b610875576040517f08c379a000000000000000000000000000000000000000000000000000000000815260040161086c9061190d565b60405180910390fd5b60006004600085815260200190815260200160002060003373ffffffffffffffffffffffffffffffffffffffff1673ffffffffffffffffffffffffffffffffffffffff1681526020019081526020016000205490506000801b810361090f576040517f08c379a000000000000000000000000000000000000000000000000000000000815260040161090690611979565b60405180910390fd5b81600501600082815260200190815260200160002060009054906101000a900460ff1615610972576040517f08c379a0000000000000000000000000000000000000000000000000000000008152600401610969906119e5565b60405180910390fd5b816004016000848152602001908152602001600020600101600081548092919061099b906117a1565b9190505550600182600501600083815260200190815260200160002060006101000a81548160ff02191690831515021790555050505050565b60008060001b6004600085815260200190815260200160002060008473ffffffffffffffffffffffffffffffffffffffff1673ffffffffffffffffffffffffffffffffffffffff168152602001908152602001600020541415905092915050565b6000806004600085815260200190815260200160002060008473ffffffffffffffffffffffffffffffffffffffff1673ffffffffffffffffffffffffffffffffffffffff1681526020019081526020016000205490506000801b8103610a9f576000915050610ad8565b60026000858152602001908152602001600020600501600082815260200190815260200160002060009054906101000a900460ff169150505b92915050565b60036020528160005260406000206020528060005260406000206000915091509054906101000a900460ff1681565b60008054906101000a900473ffffffffffffffffffffffffffffffffffffffff1673ffffffffffffffffffffffffffffffffffffffff163373ffffffffffffffffffffffffffffffffffffffff1614610b9b576040517f08c379a0000000000000000000000000000000000000000000000000000000008152600401610b9290611474565b60405180910390fd5b808210610bdd576040517f08c379a0000000000000000000000000000000000000000000000000000000008152600401610bd490611a51565b60405180910390fd5b826002600060015481526020019081526020016000206000019081610c0291906116a0565b508160026000600154815260200190815260200160002060010181905550806002600060015481526020019081526020016000206002018190555060016000815480929190610c50906117a1565b9190505550505050565b60008054906101000a900473ffffffffffffffffffffffffffffffffffffffff1681565b60008054906101000a900473ffffffffffffffffffffffffffffffffffffffff1673ffffffffffffffffffffffffffffffffffffffff163373ffffffffffffffffffffffffffffffffffffffff1614610d0c576040517f08c379a0000000000000000000000000000000000000000000000000000000008152600401610d0390611474565b60405180910390fd5b60005b8151811015610d82576001600360008581526020019081526020016000206000848481518110610d4257610d41611a71565b5b6020026020010151815260200190815260200160002060006101000a81548160ff0219169083151502179055508080610d7a906117a1565b915050610d0f565b505050565b6000604051905090565b600080fd5b600080fd5b6000819050919050565b610dae81610d9b565b8114610db957600080fd5b50565b600081359050610dcb81610da5565b92915050565b600080fd5b600080fd5b6000601f19601f8301169050919050565b7f4e487b7100000000000000000000000000000000000000000000000000000000600052604160045260246000fd5b610e2482610ddb565b810181811067ffffffffffffffff82111715610e4357610e42610dec565b5b80604052505050565b6000610e56610d87565b9050610e628282610e1b565b919050565b600067ffffffffffffffff821115610e8257610e81610dec565b5b610e8b82610ddb565b9050602081019050919050565b82818337600083830152505050565b6000610eba610eb584610e67565b610e4c565b905082815260208101848484011115610ed657610ed5610dd6565b5b610ee1848285610e98565b509392505050565b600082601f830112610efe57610efd610dd1565b5b8135610f0e848260208601610ea7565b91505092915050565b60008060408385031215610f2e57610f2d610d91565b5b6000610f3c85828601610dbc565b925050602083013567ffffffffffffffff811115610f5d57610f5c610d96565b5b610f6985828601610ee9565b9150509250929050565b600073ffffffffffffffffffffffffffffffffffffffff82169050919050565b6000610f9e82610f73565b9050919050565b610fae81610f93565b8114610fb957600080fd5b50565b600081359050610fcb81610fa5565b92915050565b60008060408385031215610fe857610fe7610d91565b5b6000610ff685828601610dbc565b925050602061100785828601610fbc565b9150509250929050565b6000819050919050565b61102481611011565b82525050565b600060208201905061103f600083018461101b565b92915050565b61104e81610d9b565b82525050565b60006020820190506110696000830184611045565b92915050565b60006020828403121561108557611084610d91565b5b600061109384828501610dbc565b91505092915050565b6110a581611011565b81146110b057600080fd5b50565b6000813590506110c28161109c565b92915050565b600080604083850312156110df576110de610d91565b5b60006110ed85828601610dbc565b92505060206110fe858286016110b3565b9150509250929050565b6000806040838503121561111f5761111e610d91565b5b600061112d85828601610dbc565b925050602061113e85828601610dbc565b9150509250929050565b600081519050919050565b600082825260208201905092915050565b60005b83811015611182578082015181840152602081019050611167565b60008484015250505050565b600061119982611148565b6111a38185611153565b93506111b3818560208601611164565b6111bc81610ddb565b840191505092915050565b600060408201905081810360008301526111e1818561118e565b90506111f06020830184611045565b9392505050565b60008115159050919050565b61120c816111f7565b82525050565b60006020820190506112276000830184611203565b92915050565b60006060820190508181036000830152611247818661118e565b90506112566020830185611045565b6112636040830184611045565b949350505050565b60008060006060848603121561128457611283610d91565b5b600084013567ffffffffffffffff8111156112a2576112a1610d96565b5b6112ae86828701610ee9565b93505060206112bf86828701610dbc565b92505060406112d086828701610dbc565b9150509250925092565b6112e381610f93565b82525050565b60006020820190506112fe60008301846112da565b92915050565b600067ffffffffffffffff82111561131f5761131e610dec565b5b602082029050602081019050919050565b600080fd5b600061134861134384611304565b610e4c565b9050808382526020820190506020840283018581111561136b5761136a611330565b5b835b81811015611394578061138088826110b3565b84526020840193505060208101905061136d565b5050509392505050565b600082601f8301126113b3576113b2610dd1565b5b81356113c3848260208601611335565b91505092915050565b600080604083850312156113e3576113e2610d91565b5b60006113f185828601610dbc565b925050602083013567ffffffffffffffff81111561141257611411610d96565b5b61141e8582860161139e565b9150509250929050565b7f4f6e6c792061646d696e20616c6c6f7765640000000000000000000000000000600082015250565b600061145e601283611153565b915061146982611428565b602082019050919050565b6000602082019050818103600083015261148d81611451565b9050919050565b7f4e487b7100000000000000000000000000000000000000000000000000000000600052602260045260246000fd5b600060028204905060018216806114db57607f821691505b6020821081036114ee576114ed611494565b5b50919050565b60008190508160005260206000209050919050565b60006020601f8301049050919050565b600082821b905092915050565b6000600883026115567fffffffffffffffffffffffffffffffffffffffffffffffffffffffffffffffff82611519565b6115608683611519565b95508019841693508086168417925050509392505050565b6000819050919050565b600061159d61159861159384610d9b565b611578565b610d9b565b9050919050565b6000819050919050565b6115b783611582565b6115cb6115c3826115a4565b848454611526565b825550505050565b600090565b6115e06115d3565b6115eb8184846115ae565b505050565b5b8181101561160f576116046000826115d8565b6001810190506115f1565b5050565b601f82111561165457611625816114f4565b61162e84611509565b8101602085101561163d578190505b61165161164985611509565b8301826115f0565b50505b505050565b600082821c905092915050565b600061167760001984600802611659565b1980831691505092915050565b60006116908383611666565b9150826002028217905092915050565b6116a982611148565b67ffffffffffffffff8111156116c2576116c1610dec565b5b6116cc82546114c3565b6116d7828285611613565b600060209050601f83116001811461170a57600084156116f8578287015190505b6117028582611684565b86555061176a565b601f198416611718866114f4565b60005b828110156117405784890151825560018201915060208501945060208101905061171b565b8683101561175d5784890151611759601f891682611666565b8355505b6001600288020188555050505b505050505050565b7f4e487b7100000000000000000000000000000000000000000000000000000000600052601160045260246000fd5b60006117ac82610d9b565b91507fffffffffffffffffffffffffffffffffffffffffffffffffffffffffffffffff82036117de576117dd611772565b5b600182019050919050565b7f4e6f742077686974656c69737465640000000000000000000000000000000000600082015250565b600061181f600f83611153565b915061182a826117e9565b602082019050919050565b6000602082019050818103600083015261184e81611812565b9050919050565b7f416c726561647920726567697374657265640000000000000000000000000000600082015250565b600061188b601283611153565b915061189682611855565b602082019050919050565b600060208201905081810360008301526118ba8161187e565b9050919050565b7f456c656374696f6e206e6f742061637469766500000000000000000000000000600082015250565b60006118f7601383611153565b9150611902826118c1565b602082019050919050565b60006020820190508181036000830152611926816118ea565b9050919050565b7f4e6f742072656769737465726564000000000000000000000000000000000000600082015250565b6000611963600e83611153565b915061196e8261192d565b602082019050919050565b6000602082019050818103600083015261199281611956565b9050919050565b7f416c726561647920766f74656400000000000000000000000000000000000000600082015250565b60006119cf600d83611153565b91506119da82611999565b602082019050919050565b600060208201905081810360008301526119fe816119c2565b9050919050565b7f496e76616c69642074696d650000000000000000000000000000000000000000600082015250565b6000611a3b600c83611153565b9150611a4682611a05565b602082019050919050565b60006020820190508181036000830152611a6a81611a2e565b9050919050565b7f4e487b7100000000000000000000000000000000000000000000000000000000600052603260045260246000fdfea26469706673582212202b2adc5b1d48c865973c96112640e69eeb7c3f6b56499ee6f6140dbd1c4ca80c64736f6c63430008140033",
  "linkReferences": {},
  "deployedLinkReferences": {}
}