{
  "_format": "hh-sol-artifact-1",
  "contractName": "Voting",
  "sourceName": "contracts/Voting.sol",
  "abi": [
    {
      "inputs": [],
      "stateMutability": "nonpayable",
      "type": "constructor"
    },
    {
      "inputs": [
        {
          "internalType": "uint256",
          "name": "_electionId",
          "type": "uint256"
        },
        {
          "internalType": "string",
          "name": "_name",
          "type": "string"
        }
      ],
      "name": "addCandidate",
      "outputs": [],
      "stateMutability": "nonpayable",
      "type": "function"
    },
    {
      "inputs": [],
      "name": "admin",
      "outputs": [
        {
          "internalType": "address",
          "name": "",
          "type": "address"
        }
      ],
      "stateMutability": "view",
      "type": "function"
    },
    {
      "inputs": [
        {
          "internalType": "string",
          "name": "_name",
          "type": "string"
        },
        {
          "internalType": "uint256",
          "name": "_startTime",
          "type": "uint256"
        },
        {
          "internalType": "uint256",
          "name": "_endTime",
          "type": "uint256"
        }
      ],
      "name": "createElection",
      "outputs": [],
      "stateMutability": "nonpayable",
      "type": "function"
    },
    {
      "inputs": [],
      "name": "electionCount",
      "outputs": [
        {
          "internalType": "uint256",
          "name": "",
          "type": "uint256"
        }
      ],
      "stateMutability": "view",
      "type": "function"
    },
    {
      "inputs": [
        {
          "internalType": "uint256",
          "name": "id",
          "type": "uint256"
        },
        {
          "internalType": "uint256",
          "name": "cid",
          "type": "uint256"
        }
      ],
      "name": "getCandidate",
      "outputs": [
        {
          "internalType": "string",
          "name": "",
          "type": "string"
        },
        {
          "internalType": "uint256",
          "name": "",
          "type": "uint256"
        }
      ],
      "stateMutability": "view",
      "type": "function"
    },
    {
      "inputs": [
        {
          "internalType": "uint256",
          "name": "id",
          "type": "uint256"
        }
      ],
      "name": "getCandidateCount",
      "outputs": [
        {
          "internalType": "uint256",
          "name": "",
          "type": "uint256"
        }
      ],
      "stateMutability": "view",
      "type": "function"
    },
    {
      "inputs": [
        {
          "internalType": "uint256",
          "name": "id",
          "type": "uint256"
        }
      ],
      "name": "getElection",
      "outputs": [
        {
          "internalType": "string",
          "name": "",
          "type": "string"
        },
        {
          "internalType": "uint256",
          "name": "",
          "type": "uint256"
        },
        {
          "internalType": "uint256",
          "name": "",
          "type": "uint256"
        }
      ],
      "stateMutability": "view",
      "type": "function"
    },
    {
      "inputs": [],
      "name": "getElectionCount",
      "outputs": [
        {
          "internalType": "uint256",
          "name": "",
          "type": "uint256"
        }
      ],
      "stateMutability": "view",
      "type": "function"
    },
    {
      "inputs": [
        {
          "internalType": "uint256",
          "name": "_electionId",
          "type": "uint256"
        },
        {
          "internalType": "address",
          "name": "user",
          "type": "address"
        }
      ],
      "name": "hasAlreadyVoted",
      "outputs": [
        {
          "internalType": "bool",
          "name": "",
          "type": "bool"
        }
      ],
      "stateMutability": "view",
      "type": "function"
    },
    {
      "inputs": [
        {
          "internalType": "uint256",
          "name": "id",
          "type": "uint256"
        },
        {
          "internalType": "address",
          "name": "user",
          "type": "address"
        }
      ],
      "name": "isRegistered",
      "outputs": [
        {
          "internalType": "bool",
          "name": "",
          "type": "bool"
        }
      ],
      "stateMutability": "view",
      "type": "function"
    },
    {
      "inputs": [
        {
          "internalType": "uint256",
          "name": "id",
          "type": "uint256"
        },
        {
          "internalType": "bytes32",
          "name": "h",
          "type": "bytes32"
        }
      ],
      "name": "isWhitelisted",
      "outputs": [
        {
          "internalType": "bool",
          "name": "",
          "type": "bool"
        }
      ],
      "stateMutability": "view",
      "type": "function"
    },
    {
      "inputs": [
        {
          "internalType": "uint256",
          "name": "_electionId",
          "type": "uint256"
        },
        {
          "internalType": "bytes32",
          "name": "_hashedId",
          "type": "bytes32"
        }
      ],
      "name": "register",
      "outputs": [],
      "stateMutability": "nonpayable",
      "type": "function"
    },
    {
      "inputs": [
        {
          "internalType": "uint256",
          "name": "",
          "type": "uint256"
        },
        {
          "internalType": "address",
          "name": "",
          "type": "address"
        }
      ],
      "name": "registeredVoterId",
      "outputs": [
        {
          "internalType": "bytes32",
          "name": "",
          "type": "bytes32"
        }
      ],
      "stateMutability": "view",
      "type": "function"
    },
    {
      "inputs": [
        {
          "internalType": "uint256",
          "name": "",
          "type": "uint256"
        },
        {
          "internalType": "bytes32",
          "name": "",
          "type": "bytes32"
        }
      ],
      "name": "validVoterId",
      "outputs": [
        {
          "internalType": "bool",
          "name": "",
          "type": "bool"
        }
      ],
      "stateMutability": "view",
      "type": "function"
    },
    {
      "inputs": [
        {
          "internalType": "uint256",
          "name": "_electionId",
          "type": "uint256"
        },
        {
          "internalType": "uint256",
          "name": "_candidateId",
          "type": "uint256"
        }
      ],
      "name": "vote",
      "outputs": [],
      "stateMutability": "nonpayable",
      "type": "function"
    },
    {
      "inputs": [
        {
          "internalType": "uint256",
          "name": "",
          "type": "uint256"
        },
        {
          "internalType": "bytes32",
          "name": "",
          "type": "bytes32"
        }
      ],
      "name": "voterIdUsed",
      "outputs": [
        {
          "internalType": "bool",
          "name": "",
          "type": "bool"
        }
      ],
      "stateMutability": "view",
      "type": "function"
    },
    {
      "inputs": [
        {
          "internalType": "uint256",
          "name": "_electionId",
          "type": "uint256"
        },
        {
          "internalType": "bytes32[]",
          "name": "_ids",
          "type": "bytes32[]"
        }
      ],
      "name": "whitelistMultipleVoterIds",
      "outputs": [],
      "stateMutability": "nonpayable",
      "type": "function"
    }
  ],
  "bytecode": "0x608060405234801561001057600080fd5b50336000806101000a81548173ffffffffffffffffffffffffffffffffffffffff021916908373ffffffffffffffffffffffffffffffffffffffff160217905550611c5b806100606000396000f3fe608060405234801561001057600080fd5b506004361061010b5760003560e01c8063997d2830116100a2578063c14bfd2911610071578063c14bfd29146102f3578063f0ba55e014610323578063f49a7a1714610353578063f851a4401461036f578063fe0af8f71461038d5761010b565b8063997d2830146102575780639d71077714610275578063b384abef146102a7578063b81f6e18146102c35761010b565b80632965d809116100de5780632965d809146101aa5780634bd46448146101c65780636909fd44146101f75780636aca1858146102275761010b565b80631750a3d0146101105780631a5455fc1461012c578063213785a01461015c57806326f6a2aa1461017a575b600080fd5b61012a60048036038101906101259190611030565b6103a9565b005b610146600480360381019061014191906110ea565b6104bf565b6040516101539190611143565b60405180910390f35b6101646104e4565b604051610171919061116d565b60405180910390f35b610194600480360381019061018f9190611188565b6104ee565b6040516101a1919061116d565b60405180910390f35b6101c460048036038101906101bf91906111e1565b61050e565b005b6101e060048036038101906101db9190611221565b61071c565b6040516101ee9291906112e0565b60405180910390f35b610211600480360381019061020c91906111e1565b6107eb565b60405161021e919061132b565b60405180910390f35b610241600480360381019061023c91906111e1565b610827565b60405161024e919061132b565b60405180910390f35b61025f610856565b60405161026c919061116d565b60405180910390f35b61028f600480360381019061028a9190611188565b61085c565b60405161029e93929190611346565b60405180910390f35b6102c160048036038101906102bc9190611221565b610920565b005b6102dd60048036038101906102d891906110ea565b610aed565b6040516102ea919061132b565b60405180910390f35b61030d600480360381019061030891906110ea565b610b4e565b60405161031a919061132b565b60405180910390f35b61033d600480360381019061033891906111e1565b610bf7565b60405161034a919061132b565b60405180910390f35b61036d60048036038101906103689190611384565b610c26565b005b610377610d73565b6040516103849190611402565b60405180910390f35b6103a760048036038101906103a291906114e5565b610d97565b005b60008054906101000a900473ffffffffffffffffffffffffffffffffffffffff1673ffffffffffffffffffffffffffffffffffffffff163373ffffffffffffffffffffffffffffffffffffffff1614610437576040517f08c379a000000000000000000000000000000000000000000000000000000000815260040161042e9061158d565b60405180910390fd5b60006002600084815260200190815260200160002090506040518060400160405280838152602001600081525081600401600083600301548152602001908152602001600020600082015181600001908161049291906117b9565b50602082015181600101559050508060030160008154809291906104b5906118ba565b9190505550505050565b6004602052816000526040600020602052806000526040600020600091509150505481565b6000600154905090565b600060026000838152602001908152602001600020600301549050919050565b60036000838152602001908152602001600020600082815260200190815260200160002060009054906101000a900460ff1661057f576040517f08c379a00000000000000000000000000000000000000000000000000000000081526004016105769061194e565b60405180910390fd5b6000801b6004600084815260200190815260200160002060003373ffffffffffffffffffffffffffffffffffffffff1673ffffffffffffffffffffffffffffffffffffffff1681526020019081526020016000205414610614576040517f08c379a000000000000000000000000000000000000000000000000000000000815260040161060b906119ba565b60405180910390fd5b60056000838152602001908152602001600020600082815260200190815260200160002060009054906101000a900460ff1615610686576040517f08c379a000000000000000000000000000000000000000000000000000000000815260040161067d90611a26565b60405180910390fd5b806004600084815260200190815260200160002060003373ffffffffffffffffffffffffffffffffffffffff1673ffffffffffffffffffffffffffffffffffffffff16815260200190815260200160002081905550600160056000848152602001908152602001600020600083815260200190815260200160002060006101000a81548160ff0219169083151502179055505050565b6060600080600260008681526020019081526020016000206004016000858152602001908152602001600020905080600001816001015481805461075f906115dc565b80601f016020809104026020016040519081016040528092919081815260200182805461078b906115dc565b80156107d85780601f106107ad576101008083540402835291602001916107d8565b820191906000526020600020905b8154815290600101906020018083116107bb57829003601f168201915b5050505050915092509250509250929050565b600060036000848152602001908152602001600020600083815260200190815260200160002060009054906101000a900460ff16905092915050565b60056020528160005260406000206020528060005260406000206000915091509054906101000a900460ff1681565b60015481565b606060008060006002600086815260200190815260200160002090508060000181600101548260020154828054610892906115dc565b80601f01602080910402602001604051908101604052809291908181526020018280546108be906115dc565b801561090b5780601f106108e05761010080835404028352916020019161090b565b820191906000526020600020905b8154815290600101906020018083116108ee57829003601f168201915b50505050509250935093509350509193909250565b60006002600084815260200190815260200160002090508060010154421015801561094f575080600201544211155b61098e576040517f08c379a000000000000000000000000000000000000000000000000000000000815260040161098590611a92565b60405180910390fd5b60006004600085815260200190815260200160002060003373ffffffffffffffffffffffffffffffffffffffff1673ffffffffffffffffffffffffffffffffffffffff1681526020019081526020016000205490506000801b8103610a28576040517f08c379a0000000000000000000000000000000000000000000000000000000008152600401610a1f90611afe565b60405180910390fd5b81600501600082815260200190815260200160002060009054906101000a900460ff1615610a8b576040517f08c379a0000000000000000000000000000000000000000000000000000000008152600401610a8290611b6a565b60405180910390fd5b8160040160008481526020019081526020016000206001016000815480929190610ab4906118ba565b9190505550600182600501600083815260200190815260200160002060006101000a81548160ff02191690831515021790555050505050565b60008060001b6004600085815260200190815260200160002060008473ffffffffffffffffffffffffffffffffffffffff1673ffffffffffffffffffffffffffffffffffffffff168152602001908152602001600020541415905092915050565b6000806004600085815260200190815260200160002060008473ffffffffffffffffffffffffffffffffffffffff1673ffffffffffffffffffffffffffffffffffffffff1681526020019081526020016000205490506000801b8103610bb8576000915050610bf1565b60026000858152602001908152602001600020600501600082815260200190815260200160002060009054906101000a900460ff169150505b92915050565b60036020528160005260406000206020528060005260406000206000915091509054906101000a900460ff1681565b60008054906101000a900473ffffffffffffffffffffffffffffffffffffffff1673ffffffffffffffffffffffffffffffffffffffff163373ffffffffffffffffffffffffffffffffffffffff1614610cb4576040517f08c379a0000000000000000000000000000000000000000000000000000000008152600401610cab9061158d565b60405180910390fd5b808210610cf6576040517f08c379a0000000000000000000000000000000000000000000000000000000008152600401610ced90611bd6565b60405180910390fd5b826002600060015481526020019081526020016000206000019081610d1b91906117b9565b508160026000600154815260200190815260200160002060010181905550806002600060015481526020019081526020016000206002018190555060016000815480929190610d69906118ba565b9190505550505050565b60008054906101000a900473ffffffffffffffffffffffffffffffffffffffff1681565b60008054906101000a900473ffffffffffffffffffffffffffffffffffffffff1673ffffffffffffffffffffffffffffffffffffffff163373ffffffffffffffffffffffffffffffffffffffff1614610e25576040517f08c379a0000000000000000000000000000000000000000000000000000000008152600401610e1c9061158d565b60405180910390fd5b60005b8151811015610e9b576001600360008581526020019081526020016000206000848481518110610e5b57610e5a611bf6565b5b6020026020010151815260200190815260200160002060006101000a81548160ff0219169083151502179055508080610e93906118ba565b915050610e28565b505050565b6000604051905090565b600080fd5b600080fd5b6000819050919050565b610ec781610eb4565b8114610ed257600080fd5b50565b600081359050610ee481610ebe565b92915050565b600080fd5b600080fd5b6000601f19601f8301169050919050565b7f4e487b7100000000000000000000000000000000000000000000000000000000600052604160045260246000fd5b610f3d82610ef4565b810181811067ffffffffffffffff82111715610f5c57610f5b610f05565b5b80604052505050565b6000610f6f610ea0565b9050610f7b8282610f34565b919050565b600067ffffffffffffffff821115610f9b57610f9a610f05565b5b610fa482610ef4565b9050602081019050919050565b82818337600083830152505050565b6000610fd3610fce84610f80565b610f65565b905082815260208101848484011115610fef57610fee610eef565b5b610ffa848285610fb1565b509392505050565b600082601f83011261101757611016610eea565b5b8135611027848260208601610fc0565b91505092915050565b6000806040838503121561104757611046610eaa565b5b600061105585828601610ed5565b925050602083013567ffffffffffffffff81111561107657611075610eaf565b5b61108285828601611002565b9150509250929050565b600073ffffffffffffffffffffffffffffffffffffffff82169050919050565b60006110b78261108c565b9050919050565b6110c7816110ac565b81146110d257600080fd5b50565b6000813590506110e4816110be565b92915050565b6000806040838503121561110157611100610eaa565b5b600061110f85828601610ed5565b9250506020611120858286016110d5565b9150509250929050565b6000819050919050565b61113d8161112a565b82525050565b60006020820190506111586000830184611134565b92915050565b61116781610eb4565b82525050565b6000602082019050611182600083018461115e565b92915050565b60006020828403121561119e5761119d610eaa565b5b60006111ac84828501610ed5565b91505092915050565b6111be8161112a565b81146111c957600080fd5b50565b6000813590506111db816111b5565b92915050565b600080604083850312156111f8576111f7610eaa565b5b600061120685828601610ed5565b9250506020611217858286016111cc565b9150509250929050565b6000806040838503121561123857611237610eaa565b5b600061124685828601610ed5565b925050602061125785828601610ed5565b9150509250929050565b600081519050919050565b600082825260208201905092915050565b60005b8381101561129b578082015181840152602081019050611280565b60008484015250505050565b60006112b282611261565b6112bc818561126c565b93506112cc81856020860161127d565b6112d581610ef4565b840191505092915050565b600060408201905081810360008301526112fa81856112a7565b9050611309602083018461115e565b9392505050565b60008115159050919050565b61132581611310565b82525050565b6000602082019050611340600083018461131c565b92915050565b6000606082019050818103600083015261136081866112a7565b905061136f602083018561115e565b61137c604083018461115e565b949350505050565b60008060006060848603121561139d5761139c610eaa565b5b600084013567ffffffffffffffff8111156113bb576113ba610eaf565b5b6113c786828701611002565b93505060206113d886828701610ed5565b92505060406113e986828701610ed5565b9150509250925092565b6113fc816110ac565b82525050565b600060208201905061141760008301846113f3565b92915050565b600067ffffffffffffffff82111561143857611437610f05565b5b602082029050602081019050919050565b600080fd5b600061146161145c8461141d565b610f65565b9050808382526020820190506020840283018581111561148457611483611449565b5b835b818110156114ad578061149988826111cc565b845260208401935050602081019050611486565b5050509392505050565b600082601f8301126114cc576114cb610eea565b5b81356114dc84826020860161144e565b91505092915050565b600080604083850312156114fc576114fb610eaa565b5b600061150a85828601610ed5565b925050602083013567ffffffffffffffff81111561152b5761152a610eaf565b5b611537858286016114b7565b9150509250929050565b7f4f6e6c792061646d696e20616c6c6f7765640000000000000000000000000000600082015250565b600061157760128361126c565b915061158282611541565b602082019050919050565b600060208201905081810360008301526115a68161156a565b9050919050565b7f4e487b7100000000000000000000000000000000000000000000000000000000600052602260045260246000fd5b600060028204905060018216806115f457607f821691505b602082108103611607576116066115ad565b5b50919050565b60008190508160005260206000209050919050565b60006020601f8301049050919050565b600082821b905092915050565b60006008830261166f7fffffffffffffffffffffffffffffffffffffffffffffffffffffffffffffffff82611632565b6116798683611632565b95508019841693508086168417925050509392505050565b6000819050919050565b60006116b66116b16116ac84610eb4565b611691565b610eb4565b9050919050565b6000819050919050565b6116d08361169b565b6116e46116dc826116bd565b84845461163f565b825550505050565b600090565b6116f96116ec565b6117048184846116c7565b505050565b5b818110156117285761171d6000826116f1565b60018101905061170a565b5050565b601f82111561176d5761173e8161160d565b61174784611622565b81016020851015611756578190505b61176a61176285611622565b830182611709565b50505b505050565b600082821c905092915050565b600061179060001984600802611772565b1980831691505092915050565b60006117a9838361177f565b9150826002028217905092915050565b6117c282611261565b67ffffffffffffffff8111156117db576117da610f05565b5b6117e582546115dc565b6117f082828561172c565b600060209050601f8311600181146118235760008415611811578287015190505b61181b858261179d565b865550611883565b601f1984166118318661160d565b60005b8281101561185957848901518255600182019150602085019450602081019050611834565b868310156118765784890151611872601f89168261177f565b8355505b6001600288020188555050505b505050505050565b7f4e487b7100000000000000000000000000000000000000000000000000000000600052601160045260246000fd5b60006118c582610eb4565b91507fffffffffffffffffffffffffffffffffffffffffffffffffffffffffffffffff82036118f7576118f661188b565b5b600182019050919050565b7f4e6f742077686974656c69737465640000000000000000000000000000000000600082015250565b6000611938600f8361126c565b915061194382611902565b602082019050919050565b600060208201905081810360008301526119678161192b565b9050919050565b7f416c726561647920726567697374657265640000000000000000000000000000600082015250565b60006119a460128361126c565b91506119af8261196e565b602082019050919050565b600060208201905081810360008301526119d381611997565b9050919050565b7f4944207573656400000000000000000000000000000000000000000000000000600082015250565b6000611a1060078361126c565b9150611a1b826119da565b602082019050919050565b60006020820190508181036000830152611a3f81611a03565b9050919050565b7f4e6f742061637469766500000000000000000000000000000000000000000000600082015250565b6000611a7c600a8361126c565b9150611a8782611a46565b602082019050919050565b60006020820190508181036000830152611aab81611a6f565b9050919050565b7f4e6f742072656769737465726564000000000000000000000000000000000000600082015250565b6000611ae8600e8361126c565b9150611af382611ab2565b602082019050919050565b60006020820190508181036000830152611b1781611adb565b9050919050565b7f416c726561647920766f74656400000000000000000000000000000000000000600082015250565b6000611b54600d8361126c565b9150611b5f82611b1e565b602082019050919050565b60006020820190508181036000830152611b8381611b47565b9050919050565b7f496e76616c69642074696d650000000000000000000000000000000000000000600082015250565b6000611bc0600c8361126c565b9150611bcb82611b8a565b602082019050919050565b60006020820190508181036000830152611bef81611bb3565b9050919050565b7f4e487b7100000000000000000000000000000000000000000000000000000000600052603260045260246000fdfea2646970667358221220f47487fe1cf2914349d79a1e13ce06df5502a4ca043d03d061562667d4fc652d64736f6c63430008140033",
  "linkReferences": {},
  "deployedLinkReferences": {}
}