{
  "_format": "hh-sol-artifact-1",
  "contractName": "Voting",
  "sourceName": "contracts/Voting.sol",
  "abi": [
    {
      "inputs": [],
      "stateMutability": "nonpayable",
      "type": "constructor"
    },
    {
      "inputs": [
        {
          "internalType": "uint256",
          "name": "_electionId",
          "type": "uint256"
        },
        {
          "internalType": "string",
          "name": "_name",
          "type": "string"
        }
      ],
      "name": "addCandidate",
      "outputs": [],
      "stateMutability": "nonpayable",
      "type": "function"
    },
    {
      "inputs": [],
      "name": "admin",
      "outputs": [
        {
          "internalType": "address",
          "name": "",
          "type": "address"
        }
      ],
      "stateMutability": "view",
      "type": "function"
    },
    {
      "inputs": [
        {
          "internalType": "string",
          "name": "_name",
          "type": "string"
        },
        {
          "internalType": "uint256",
          "name": "_startTime",
          "type": "uint256"
        },
        {
          "internalType": "uint256",
          "name": "_endTime",
          "type": "uint256"
        }
      ],
      "name": "createElection",
      "outputs": [],
      "stateMutability": "nonpayable",
      "type": "function"
    },
    {
      "inputs": [],
      "name": "electionCount",
      "outputs": [
        {
          "internalType": "uint256",
          "name": "",
          "type": "uint256"
        }
      ],
      "stateMutability": "view",
      "type": "function"
    },
    {
      "inputs": [
        {
          "internalType": "uint256",
          "name": "_electionId",
          "type": "uint256"
        },
        {
          "internalType": "uint256",
          "name": "_candidateId",
          "type": "uint256"
        }
      ],
      "name": "getCandidate",
      "outputs": [
        {
          "internalType": "string",
          "name": "",
          "type": "string"
        },
        {
          "internalType": "uint256",
          "name": "",
          "type": "uint256"
        }
      ],
      "stateMutability": "view",
      "type": "function"
    },
    {
      "inputs": [
        {
          "internalType": "uint256",
          "name": "_electionId",
          "type": "uint256"
        }
      ],
      "name": "getCandidateCount",
      "outputs": [
        {
          "internalType": "uint256",
          "name": "",
          "type": "uint256"
        }
      ],
      "stateMutability": "view",
      "type": "function"
    },
    {
      "inputs": [
        {
          "internalType": "uint256",
          "name": "_electionId",
          "type": "uint256"
        }
      ],
      "name": "getElection",
      "outputs": [
        {
          "internalType": "string",
          "name": "",
          "type": "string"
        },
        {
          "internalType": "uint256",
          "name": "",
          "type": "uint256"
        },
        {
          "internalType": "uint256",
          "name": "",
          "type": "uint256"
        }
      ],
      "stateMutability": "view",
      "type": "function"
    },
    {
      "inputs": [],
      "name": "getElectionCount",
      "outputs": [
        {
          "internalType": "uint256",
          "name": "",
          "type": "uint256"
        }
      ],
      "stateMutability": "view",
      "type": "function"
    },
    {
      "inputs": [
        {
          "internalType": "uint256",
          "name": "_electionId",
          "type": "uint256"
        },
        {
          "internalType": "address",
          "name": "user",
          "type": "address"
        }
      ],
      "name": "isRegistered",
      "outputs": [
        {
          "internalType": "bool",
          "name": "",
          "type": "bool"
        }
      ],
      "stateMutability": "view",
      "type": "function"
    },
    {
      "inputs": [
        {
          "internalType": "uint256",
          "name": "_electionId",
          "type": "uint256"
        },
        {
          "internalType": "bytes32",
          "name": "_hashedId",
          "type": "bytes32"
        }
      ],
      "name": "isWhitelisted",
      "outputs": [
        {
          "internalType": "bool",
          "name": "",
          "type": "bool"
        }
      ],
      "stateMutability": "view",
      "type": "function"
    },
    {
      "inputs": [
        {
          "internalType": "uint256",
          "name": "_electionId",
          "type": "uint256"
        },
        {
          "internalType": "bytes32",
          "name": "_hashedId",
          "type": "bytes32"
        }
      ],
      "name": "register",
      "outputs": [],
      "stateMutability": "nonpayable",
      "type": "function"
    },
    {
      "inputs": [
        {
          "internalType": "uint256",
          "name": "",
          "type": "uint256"
        },
        {
          "internalType": "address",
          "name": "",
          "type": "address"
        }
      ],
      "name": "registeredVoterId",
      "outputs": [
        {
          "internalType": "bytes32",
          "name": "",
          "type": "bytes32"
        }
      ],
      "stateMutability": "view",
      "type": "function"
    },
    {
      "inputs": [
        {
          "internalType": "uint256",
          "name": "",
          "type": "uint256"
        },
        {
          "internalType": "bytes32",
          "name": "",
          "type": "bytes32"
        }
      ],
      "name": "validVoterId",
      "outputs": [
        {
          "internalType": "bool",
          "name": "",
          "type": "bool"
        }
      ],
      "stateMutability": "view",
      "type": "function"
    },
    {
      "inputs": [
        {
          "internalType": "uint256",
          "name": "_electionId",
          "type": "uint256"
        },
        {
          "internalType": "uint256",
          "name": "_candidateId",
          "type": "uint256"
        }
      ],
      "name": "vote",
      "outputs": [],
      "stateMutability": "nonpayable",
      "type": "function"
    },
    {
      "inputs": [
        {
          "internalType": "uint256",
          "name": "",
          "type": "uint256"
        },
        {
          "internalType": "bytes32",
          "name": "",
          "type": "bytes32"
        }
      ],
      "name": "voterIdUsed",
      "outputs": [
        {
          "internalType": "bool",
          "name": "",
          "type": "bool"
        }
      ],
      "stateMutability": "view",
      "type": "function"
    },
    {
      "inputs": [
        {
          "internalType": "uint256",
          "name": "_electionId",
          "type": "uint256"
        },
        {
          "internalType": "bytes32[]",
          "name": "_hashedIds",
          "type": "bytes32[]"
        }
      ],
      "name": "whitelistMultipleVoterIds",
      "outputs": [],
      "stateMutability": "nonpayable",
      "type": "function"
    },
    {
      "inputs": [
        {
          "internalType": "uint256",
          "name": "_electionId",
          "type": "uint256"
        },
        {
          "internalType": "bytes32",
          "name": "_hashedId",
          "type": "bytes32"
        }
      ],
      "name": "whitelistVoterId",
      "outputs": [],
      "stateMutability": "nonpayable",
      "type": "function"
    }
  ],
  "bytecode": "0x608060405234801561001057600080fd5b50336000806101000a81548173ffffffffffffffffffffffffffffffffffffffff021916908373ffffffffffffffffffffffffffffffffffffffff160217905550611f05806100606000396000f3fe608060405234801561001057600080fd5b506004361061010b5760003560e01c8063997d2830116100a2578063ecdd99b911610071578063ecdd99b9146102f3578063f0ba55e01461030f578063f49a7a171461033f578063f851a4401461035b578063fe0af8f7146103795761010b565b8063997d2830146102575780639d71077714610275578063b384abef146102a7578063b81f6e18146102c35761010b565b80632965d809116100de5780632965d809146101aa5780634bd46448146101c65780636909fd44146101f75780636aca1858146102275761010b565b80631750a3d0146101105780631a5455fc1461012c578063213785a01461015c57806326f6a2aa1461017a575b600080fd5b61012a600480360381019061012591906111dc565b610395565b005b61014660048036038101906101419190611296565b6104ef565b60405161015391906112ef565b60405180910390f35b610164610514565b6040516101719190611319565b60405180910390f35b610194600480360381019061018f9190611334565b61051e565b6040516101a19190611319565b60405180910390f35b6101c460048036038101906101bf919061138d565b61053e565b005b6101e060048036038101906101db91906113cd565b610790565b6040516101ee92919061148c565b60405180910390f35b610211600480360381019061020c919061138d565b61085f565b60405161021e91906114d7565b60405180910390f35b610241600480360381019061023c919061138d565b61089b565b60405161024e91906114d7565b60405180910390f35b61025f6108ca565b60405161026c9190611319565b60405180910390f35b61028f600480360381019061028a9190611334565b6108d0565b60405161029e939291906114f2565b60405180910390f35b6102c160048036038101906102bc91906113cd565b610994565b005b6102dd60048036038101906102d89190611296565b610beb565b6040516102ea91906114d7565b60405180910390f35b61030d6004803603810190610308919061138d565b610c4c565b005b6103296004803603810190610324919061138d565b610d5f565b60405161033691906114d7565b60405180910390f35b61035960048036038101906103549190611530565b610d8e565b005b610363610edb565b60405161037091906115ae565b60405180910390f35b610393600480360381019061038e9190611691565b610eff565b005b60008054906101000a900473ffffffffffffffffffffffffffffffffffffffff1673ffffffffffffffffffffffffffffffffffffffff163373ffffffffffffffffffffffffffffffffffffffff1614610423576040517f08c379a000000000000000000000000000000000000000000000000000000000815260040161041a90611739565b60405180910390fd5b6001548210610467576040517f08c379a000000000000000000000000000000000000000000000000000000000815260040161045e906117a5565b60405180910390fd5b6000600260008481526020019081526020016000209050604051806040016040528083815260200160008152508160040160008360030154815260200190815260200160002060008201518160000190816104c291906119d1565b50602082015181600101559050508060030160008154809291906104e590611ad2565b9190505550505050565b6004602052816000526040600020602052806000526040600020600091509150505481565b6000600154905090565b600060026000838152602001908152602001600020600301549050919050565b6001548210610582576040517f08c379a0000000000000000000000000000000000000000000000000000000008152600401610579906117a5565b60405180910390fd5b60036000838152602001908152602001600020600082815260200190815260200160002060009054906101000a900460ff166105f3576040517f08c379a00000000000000000000000000000000000000000000000000000000081526004016105ea90611b8c565b60405180910390fd5b6000801b6004600084815260200190815260200160002060003373ffffffffffffffffffffffffffffffffffffffff1673ffffffffffffffffffffffffffffffffffffffff1681526020019081526020016000205414610688576040517f08c379a000000000000000000000000000000000000000000000000000000000815260040161067f90611bf8565b60405180910390fd5b60056000838152602001908152602001600020600082815260200190815260200160002060009054906101000a900460ff16156106fa576040517f08c379a00000000000000000000000000000000000000000000000000000000081526004016106f190611c64565b60405180910390fd5b806004600084815260200190815260200160002060003373ffffffffffffffffffffffffffffffffffffffff1673ffffffffffffffffffffffffffffffffffffffff16815260200190815260200160002081905550600160056000848152602001908152602001600020600083815260200190815260200160002060006101000a81548160ff0219169083151502179055505050565b606060008060026000868152602001908152602001600020600401600085815260200190815260200160002090508060000181600101548180546107d3906117f4565b80601f01602080910402602001604051908101604052809291908181526020018280546107ff906117f4565b801561084c5780601f106108215761010080835404028352916020019161084c565b820191906000526020600020905b81548152906001019060200180831161082f57829003601f168201915b5050505050915092509250509250929050565b600060036000848152602001908152602001600020600083815260200190815260200160002060009054906101000a900460ff16905092915050565b60056020528160005260406000206020528060005260406000206000915091509054906101000a900460ff1681565b60015481565b606060008060006002600086815260200190815260200160002090508060000181600101548260020154828054610906906117f4565b80601f0160208091040260200160405190810160405280929190818152602001828054610932906117f4565b801561097f5780601f106109545761010080835404028352916020019161097f565b820191906000526020600020905b81548152906001019060200180831161096257829003601f168201915b50505050509250935093509350509193909250565b60015482106109d8576040517f08c379a00000000000000000000000000000000000000000000000000000000081526004016109cf906117a5565b60405180910390fd5b600060026000848152602001908152602001600020905080600101544210158015610a07575080600201544211155b610a46576040517f08c379a0000000000000000000000000000000000000000000000000000000008152600401610a3d90611cd0565b60405180910390fd5b60006004600085815260200190815260200160002060003373ffffffffffffffffffffffffffffffffffffffff1673ffffffffffffffffffffffffffffffffffffffff1681526020019081526020016000205490506000801b8103610ae0576040517f08c379a0000000000000000000000000000000000000000000000000000000008152600401610ad790611d3c565b60405180910390fd5b81600501600082815260200190815260200160002060009054906101000a900460ff1615610b43576040517f08c379a0000000000000000000000000000000000000000000000000000000008152600401610b3a90611da8565b60405180910390fd5b81600301548310610b89576040517f08c379a0000000000000000000000000000000000000000000000000000000008152600401610b8090611e14565b60405180910390fd5b8160040160008481526020019081526020016000206001016000815480929190610bb290611ad2565b9190505550600182600501600083815260200190815260200160002060006101000a81548160ff02191690831515021790555050505050565b60008060001b6004600085815260200190815260200160002060008473ffffffffffffffffffffffffffffffffffffffff1673ffffffffffffffffffffffffffffffffffffffff168152602001908152602001600020541415905092915050565b60008054906101000a900473ffffffffffffffffffffffffffffffffffffffff1673ffffffffffffffffffffffffffffffffffffffff163373ffffffffffffffffffffffffffffffffffffffff1614610cda576040517f08c379a0000000000000000000000000000000000000000000000000000000008152600401610cd190611739565b60405180910390fd5b6001548210610d1e576040517f08c379a0000000000000000000000000000000000000000000000000000000008152600401610d15906117a5565b60405180910390fd5b600160036000848152602001908152602001600020600083815260200190815260200160002060006101000a81548160ff0219169083151502179055505050565b60036020528160005260406000206020528060005260406000206000915091509054906101000a900460ff1681565b60008054906101000a900473ffffffffffffffffffffffffffffffffffffffff1673ffffffffffffffffffffffffffffffffffffffff163373ffffffffffffffffffffffffffffffffffffffff1614610e1c576040517f08c379a0000000000000000000000000000000000000000000000000000000008152600401610e1390611739565b60405180910390fd5b808210610e5e576040517f08c379a0000000000000000000000000000000000000000000000000000000008152600401610e5590611e80565b60405180910390fd5b826002600060015481526020019081526020016000206000019081610e8391906119d1565b508160026000600154815260200190815260200160002060010181905550806002600060015481526020019081526020016000206002018190555060016000815480929190610ed190611ad2565b9190505550505050565b60008054906101000a900473ffffffffffffffffffffffffffffffffffffffff1681565b60008054906101000a900473ffffffffffffffffffffffffffffffffffffffff1673ffffffffffffffffffffffffffffffffffffffff163373ffffffffffffffffffffffffffffffffffffffff1614610f8d576040517f08c379a0000000000000000000000000000000000000000000000000000000008152600401610f8490611739565b60405180910390fd5b6001548210610fd1576040517f08c379a0000000000000000000000000000000000000000000000000000000008152600401610fc8906117a5565b60405180910390fd5b60005b815181101561104757600160036000858152602001908152602001600020600084848151811061100757611006611ea0565b5b6020026020010151815260200190815260200160002060006101000a81548160ff021916908315150217905550808061103f90611ad2565b915050610fd4565b505050565b6000604051905090565b600080fd5b600080fd5b6000819050919050565b61107381611060565b811461107e57600080fd5b50565b6000813590506110908161106a565b92915050565b600080fd5b600080fd5b6000601f19601f8301169050919050565b7f4e487b7100000000000000000000000000000000000000000000000000000000600052604160045260246000fd5b6110e9826110a0565b810181811067ffffffffffffffff82111715611108576111076110b1565b5b80604052505050565b600061111b61104c565b905061112782826110e0565b919050565b600067ffffffffffffffff821115611147576111466110b1565b5b611150826110a0565b9050602081019050919050565b82818337600083830152505050565b600061117f61117a8461112c565b611111565b90508281526020810184848401111561119b5761119a61109b565b5b6111a684828561115d565b509392505050565b600082601f8301126111c3576111c2611096565b5b81356111d384826020860161116c565b91505092915050565b600080604083850312156111f3576111f2611056565b5b600061120185828601611081565b925050602083013567ffffffffffffffff8111156112225761122161105b565b5b61122e858286016111ae565b9150509250929050565b600073ffffffffffffffffffffffffffffffffffffffff82169050919050565b600061126382611238565b9050919050565b61127381611258565b811461127e57600080fd5b50565b6000813590506112908161126a565b92915050565b600080604083850312156112ad576112ac611056565b5b60006112bb85828601611081565b92505060206112cc85828601611281565b9150509250929050565b6000819050919050565b6112e9816112d6565b82525050565b600060208201905061130460008301846112e0565b92915050565b61131381611060565b82525050565b600060208201905061132e600083018461130a565b92915050565b60006020828403121561134a57611349611056565b5b600061135884828501611081565b91505092915050565b61136a816112d6565b811461137557600080fd5b50565b60008135905061138781611361565b92915050565b600080604083850312156113a4576113a3611056565b5b60006113b285828601611081565b92505060206113c385828601611378565b9150509250929050565b600080604083850312156113e4576113e3611056565b5b60006113f285828601611081565b925050602061140385828601611081565b9150509250929050565b600081519050919050565b600082825260208201905092915050565b60005b8381101561144757808201518184015260208101905061142c565b60008484015250505050565b600061145e8261140d565b6114688185611418565b9350611478818560208601611429565b611481816110a0565b840191505092915050565b600060408201905081810360008301526114a68185611453565b90506114b5602083018461130a565b9392505050565b60008115159050919050565b6114d1816114bc565b82525050565b60006020820190506114ec60008301846114c8565b92915050565b6000606082019050818103600083015261150c8186611453565b905061151b602083018561130a565b611528604083018461130a565b949350505050565b60008060006060848603121561154957611548611056565b5b600084013567ffffffffffffffff8111156115675761156661105b565b5b611573868287016111ae565b935050602061158486828701611081565b925050604061159586828701611081565b9150509250925092565b6115a881611258565b82525050565b60006020820190506115c3600083018461159f565b92915050565b600067ffffffffffffffff8211156115e4576115e36110b1565b5b602082029050602081019050919050565b600080fd5b600061160d611608846115c9565b611111565b905080838252602082019050602084028301858111156116305761162f6115f5565b5b835b8181101561165957806116458882611378565b845260208401935050602081019050611632565b5050509392505050565b600082601f83011261167857611677611096565b5b81356116888482602086016115fa565b91505092915050565b600080604083850312156116a8576116a7611056565b5b60006116b685828601611081565b925050602083013567ffffffffffffffff8111156116d7576116d661105b565b5b6116e385828601611663565b9150509250929050565b7f4f6e6c792061646d696e20616c6c6f7765640000000000000000000000000000600082015250565b6000611723601283611418565b915061172e826116ed565b602082019050919050565b6000602082019050818103600083015261175281611716565b9050919050565b7f456c656374696f6e206e6f7420666f756e640000000000000000000000000000600082015250565b600061178f601283611418565b915061179a82611759565b602082019050919050565b600060208201905081810360008301526117be81611782565b9050919050565b7f4e487b7100000000000000000000000000000000000000000000000000000000600052602260045260246000fd5b6000600282049050600182168061180c57607f821691505b60208210810361181f5761181e6117c5565b5b50919050565b60008190508160005260206000209050919050565b60006020601f8301049050919050565b600082821b905092915050565b6000600883026118877fffffffffffffffffffffffffffffffffffffffffffffffffffffffffffffffff8261184a565b611891868361184a565b95508019841693508086168417925050509392505050565b6000819050919050565b60006118ce6118c96118c484611060565b6118a9565b611060565b9050919050565b6000819050919050565b6118e8836118b3565b6118fc6118f4826118d5565b848454611857565b825550505050565b600090565b611911611904565b61191c8184846118df565b505050565b5b8181101561194057611935600082611909565b600181019050611922565b5050565b601f8211156119855761195681611825565b61195f8461183a565b8101602085101561196e578190505b61198261197a8561183a565b830182611921565b50505b505050565b600082821c905092915050565b60006119a86000198460080261198a565b1980831691505092915050565b60006119c18383611997565b9150826002028217905092915050565b6119da8261140d565b67ffffffffffffffff8111156119f3576119f26110b1565b5b6119fd82546117f4565b611a08828285611944565b600060209050601f831160018114611a3b5760008415611a29578287015190505b611a3385826119b5565b865550611a9b565b601f198416611a4986611825565b60005b82811015611a7157848901518255600182019150602085019450602081019050611a4c565b86831015611a8e5784890151611a8a601f891682611997565b8355505b6001600288020188555050505b505050505050565b7f4e487b7100000000000000000000000000000000000000000000000000000000600052601160045260246000fd5b6000611add82611060565b91507fffffffffffffffffffffffffffffffffffffffffffffffffffffffffffffffff8203611b0f57611b0e611aa3565b5b600182019050919050565b7f4e6f742077686974656c697374656420666f72207468697320656c656374696f60008201527f6e00000000000000000000000000000000000000000000000000000000000000602082015250565b6000611b76602183611418565b9150611b8182611b1a565b604082019050919050565b60006020820190508181036000830152611ba581611b69565b9050919050565b7f416c726561647920726567697374657265640000000000000000000000000000600082015250565b6000611be2601283611418565b9150611bed82611bac565b602082019050919050565b60006020820190508181036000830152611c1181611bd5565b9050919050565b7f566f74657220494420616c726561647920757365640000000000000000000000600082015250565b6000611c4e601583611418565b9150611c5982611c18565b602082019050919050565b60006020820190508181036000830152611c7d81611c41565b9050919050565b7f456c656374696f6e206e6f742061637469766500000000000000000000000000600082015250565b6000611cba601383611418565b9150611cc582611c84565b602082019050919050565b60006020820190508181036000830152611ce981611cad565b9050919050565b7f4e6f742072656769737465726564000000000000000000000000000000000000600082015250565b6000611d26600e83611418565b9150611d3182611cf0565b602082019050919050565b60006020820190508181036000830152611d5581611d19565b9050919050565b7f416c726561647920766f74656400000000000000000000000000000000000000600082015250565b6000611d92600d83611418565b9150611d9d82611d5c565b602082019050919050565b60006020820190508181036000830152611dc181611d85565b9050919050565b7f496e76616c69642063616e646964617465000000000000000000000000000000600082015250565b6000611dfe601183611418565b9150611e0982611dc8565b602082019050919050565b60006020820190508181036000830152611e2d81611df1565b9050919050565b7f496e76616c69642074696d652072616e67650000000000000000000000000000600082015250565b6000611e6a601283611418565b9150611e7582611e34565b602082019050919050565b60006020820190508181036000830152611e9981611e5d565b9050919050565b7f4e487b7100000000000000000000000000000000000000000000000000000000600052603260045260246000fdfea2646970667358221220bf21583f0c5b737268cf894d542723d2a92fbf1d6c3916cfbeb0700bb372ee9a64736f6c63430008140033",
  "linkReferences": {},
  "deployedLinkReferences": {}
}